:020000040800F2
:1000000000280020813B00080504000807040008C0
:10001000090400080B0400080D040008000000009B
:10002000000000000000000000000000C93B0008C4
:100030000F04000800000000C93B0008110400087C
:10004000C93B0008C93B0008C93B0008C93B000880
:10005000C93B0008C93B0008C93B0008C93B000870
:10006000C93B0008C93B0008C93B0008250400083B
:10007000C93B0008C93B0008C93B0008C93B000850
:10008000C93B0008C93B0008C93B0008C93B000840
:1000900031040008C93B0008C93B0008C93B0008FF
:1000A000C93B0008C93B0008C93B0008C93B000820
:1000B000C93B0008C93B000800000000C93B00081C
:1000C000C93B00080000000000000000C93B000818
:1000D00000000000C93B0008C93B00080000000008
:1000E000C93B0008C93B0008C93B000800000000EC
:1000F0000000000000000000000000000000000000
:0C01000000000000000000005FF808F1A3
:10010C0010B5054C237833B9044B13B10448AFF345
:10011C0000800123237010BD20010020000000008E
:10012C00183C000808B5034B1BB103490348AFF357
:10013C00008008BD0000000024010020183C0008CD
:10014C0012230B80004870472000002004230B80F2
:10015C00004870471C00002010B5044C0A460448A7
:10016C00214601F08EF8204610BD00BF7C01002016
:10017C00423C000810B5044C0A460448214601F0E4
:10018C0080F8204610BD00BF7C010020523C0008C6
:10019C0010B5044C0A460448214601F072F820467A
:1001AC0010BD00BF7C010020653C000810B5044C5C
:1001BC000A460448214601F064F8204610BD00BFF1
:1001CC007C010020723C000810B5044C0A4604481F
:1001DC00214601F056F8204610BD00BF7C010020DE
:1001EC008B3C0008024A034B00201A60704700BF8A
:1001FC00A00700207C0300200020704700207047DF
:10020C0007B50D4B02689A4212D103F5DA33DA695D
:10021C00142042F40002DA61DB69002203F40003CB
:10022C0001931146019B03F0FBF8142003F02CF909
:10023C0003B05DF804FB00BF005C004000F57B716F
:10024C00D0F81C0401F06CB800EB4113D3F81C225D
:10025C00D0F81C0401F091B800EB4113DA6BD0F824
:10026C001C0401F0BBB8D0F81C0401F036B910B571
:10027C0004460121D0F81C0401F01DF9D4F81C042B
:10028C00BDE8104001F0F8B810B50446D0F81C04D5
:10029C0001F014F9A36923B1024A136943F0060370
:1002AC00136110BD00ED00E0D0F81C0401F00FB993
:1002BC0038B505461749184808220223032480E85C
:1002CC001E00C0F81C540024C5F820028461C461CF
:1002DC00046202F069FA224621461823D5F820025E
:1002EC0002F04AFA224658238021D5F8200202F067
:1002FC0043FA224698238121D5F8200202F03CFAD9
:10030C00D82322460121D5F8200202F035FA2046E6
:10031C0038BD00BF005C00408003002008B5D0F859
:10032C00200202F0ABFA002008BD10B51C46D0F834
:10033C0020021346224602F0CCFA002010BD08B56C
:10034C00D0F8200202F0E8FA002008BD08B5D0F879
:10035C00200202F0AEFD002008BD08B5D0F8200246
:10036C0002F0D0FD002008BD0A06D0F8203245BFAF
:10037C0001F07F0103EB411303EB411393F82A00C7
:10038C0058BF93F80A02704708B5D0F8200202F063
:10039C008CFA002008BD08B5D0F8200202F001FB51
:1003AC00002008BD08B5D0F8200202F0D6FA0020D3
:1003BC0008BD0000004870473C01002070477047A2
:1003CC0010B5094C00220949204600F076FF084977
:1003DC00204600F087FF2046064901F073F92046BD
:1003EC00BDE8104000F085BFA007002000000020F1
:1003FC00D4000020340000207047FEE7FEE7FEE743
:10040C00FEE7FEE708B500F0E5FC03F071FBBDE884
:10041C00084003F068B80000014802F0C5BE00BFF8
:10042C00380B0020014802F0DCBA00BF800300202A
:10043C001A4B07B59A69032042F001029A619B6935
:10044C0003F001030193019B02F0D8FF0022114637
:10045C006FF00B0002F0E4FF002211466FF00A006F
:10046C0002F0DEFF002211466FF0090002F0D8FF07
:10047C00002211466FF0030002F0D2FF0022114659
:10048C004FF0FF3002F0CCFF054A536823F0E063D5
:10049C0043F08063536003B05DF804FB001002402E
:1004AC000000014030B50268184B87B09A420546EF
:1004BC002AD103F56C439A6902A942F400729A613D
:1004CC009B69134803F400730193019B7F230293F0
:1004DC000323104C039302F039FD0F4B204623608D
:1004EC0000236360A3608023E3604FF400732361F7
:1004FC004FF4006363612023A3614FF40053E36165
:10050C0002F000FE2C62656207B030BD0024014091
:10051C0000080140380B00200800024070B5104E56
:10052C0004464FF48061304602F0E2FD4FF4006166
:10053C000546304602F0DCFD0A4B182202FB043360
:10054C001A7C40EA450002F00F01074AC0B202EBE8
:10055C008102125C1A74187C00F0300070BD00BF70
:10056C00000C0140C8090020A73C0008012208B576
:10057C001146A74802F0C2FD0020FFF7CFFF20284C
:10058C0002D1A44B012203E0102807D1A14B022277
:10059C001A70A14AD2E90001C3E90201002201212B
:1005AC009B4802F0ABFD01220221994802F0A6FD06
:1005BC000120FFF7B3FF202802D1964B012203E064
:1005CC00102807D1934B02221A76934AD2E90001E4
:1005DC00C3E90801002202218D4802F08FFD01229F
:1005EC004FF400518A4802F089FD0220FFF796FF74
:1005FC00202802D1874B012203E0102808D1854B1B
:10060C00022283F83020844AD2E90001C3E90E01AA
:10061C0000224FF400517E4802F070FD01224FF48D
:10062C0080417B4802F06AFD0320FFF777FF20280A
:10063C0002D1784B012203E0102808D1754B02221D
:10064C0083F84820744AD2E90001C3E9140100225E
:10065C004FF480416E4802F051FD01224FF40041ED
:10066C006B4802F04BFD0420FFF758FF202802D105
:10067C00684B012203E0102808D1664B022283F854
:10068C006020654AD2E90001C3E91A0100224FF447
:10069C0000415F4802F032FD01224FF480715F4847
:1006AC0002F02CFD0520FFF739FF202802D1594B11
:1006BC00012203E0102808D1564B022283F878203F
:1006CC00554AD2E90001C3E9200100224FF48071A0
:1006DC00524802F013FD01224FF400714F4802F012
:1006EC000DFD0620FFF71AFF202802D1494B0122ED
:1006FC0003E0102808D1474B022283F89020464A89
:10070C00D2E90001C3E9260100224FF400714348ED
:10071C0002F0F4FC01224FF48061404802F0EEFC40
:10072C000720FFF7FBFE202802D13A4B012203E001
:10073C00102808D1374B022283F8A820364AD2E978
:10074C000001C3E92C0100224FF48061334802F010
:10075C00D5FC01224FF40061304802F0CFFC082098
:10076C00FFF7DCFE202802D12A4B012203E01028DF
:10077C0008D1284B022283F8C020274AD2E9000175
:10078C00C3E9320100224FF40061244802F0B6FCA8
:10079C0001224FF48051214802F0B0FC0920FFF7F0
:1007AC00BDFE202802D11B4B012203E0102808D1EA
:1007BC00184B022283F8D820174AD2E90001C3E96A
:1007CC00380100224FF48051144802F097FC0122AA
:1007DC004FF40041114802F091FC0A20FFF79EFEF5
:1007EC00202802D10B4B012203E0102808D1094B21
:1007FC00022283F8F020084AD2E90001C3E93E0145
:10080C00BDE8084000224FF40041044802F076BCD9
:10081C00000C0140C8090020080D00200008014010
:10082C004FF06043D3F8802ED1070CD5D3F8002EAF
:10083C00D20700D470471A680AB900BFFBE7C3B2ED
:10084C004FF060421370704730B5012395B00A9396
:10085C004FF48033002402250B9312930AA84FF413
:10086C00E01313930C94119501F088FB0F23294688
:10087C00059305A84FF48063089306950794099493
:10088C0001F02AFE1223019301A84FF44043039375
:10089C00049401F0EDFA01F055FF4FF47A73B0FBBC
:1008AC00F3F002F0FDFD042002F010FE224621467A
:1008BC004FF0FF3002F0B4FD15B030BD4520FFF70E
:1008CC00AFBF00002DE9F04FAF4C8DB003F0FEF838
:1008DC00FFF7BAFFA369012643F01003A361A369D4
:1008EC00022703F010030493049BA3694FF46048A0
:1008FC0043F02003A361A36908A903F02003059327
:10090C00059BA369A14843F00403A361A3690025D7
:10091C0003F004030693069BA36943F00803A36149
:10092C00A369CDF8208003F008030793079B099671
:10093C000B9702F00BFB49F6807308A994480893B7
:10094C0009960B9702F002FB4EF20B0308A9914893
:10095C00089309960B9702F0F9FA41F6F07308A97F
:10096C008C48089309950A9702F0F0FA2A468021E0
:10097C00874802F0C3FB2A464FF41F41844802F01B
:10098C00BDFB2A464EF20301824802F0B7FB2A4611
:10099C0041467E4802F0B2FB63692A4633436361E9
:1009AC0063692946334003930B20039B02F038FD07
:1009BC000B2002F069FD7848784BC66003604FF459
:1009CC00807383604FF46023C361072345614560E6
:1009DC00036102F0D5FF08B1FFF770FF022408A9EC
:1009EC006D48089509960A9402F0BEFD08B1FFF710
:1009FC0065FF012308A968480893099402F0B4FD27
:100A0C0008B1FFF75BFF0223032408A9624808938F
:100A1C00099402F0A9FD08B1FFF750FF089408A94A
:100A2C0004245D48099402F09FFD08B1FFF746FFCE
:100A3C00089408A905245848099402F095FD08B1BA
:100A4C00FFF73CFF089408A906245348099402F0C8
:100A5C008BFD08B1FFF732FF072308A94E48089415
:100A6C00099302F081FD08B1FFF728FFFFF7A8FCFE
:100A7C00494802F071FE08B1FFF720FF07224849F0
:100A8C00454802F0CBFE08B1FFF718FFDFF82881CC
:100A9C00444C46460223424D23700027FFF766FD67
:100AAC002B68414963721B0AA3726B68DFF80CC197
:100ABC00E3721B0A2373AB684FF0120963731B0AB2
:100ACC00A373EB68E3731B0A23742B696A69637461
:100ADC001B0AA374AB6993420B6038BF1346334AAD
:100AEC00E37413601B0A324A2375002109FB01CE03
:100AFC00002303EB43001EF8000001280BBF18F87D
:100B0C00030018F803A092F800A0107803F1010379
:100B1C000CBF4AEA000020EA0A00062B1070E8D14C
:100B2C000131062902F10102E0D14FF0000CE3463D
:100B3C00DFF88C901F4B5FFA8CFED3E90001182371
:100B4C0003FB0CFA09EB0A03D3E90223801A61EBCD
:100B5C00030119F80A30CDE90001012B32D14FEA1B
:100B6C009E0301330EF00302002916F81210E25C0A
:100B7C0008BF332829BF8A430A43E25409F80AB054
:100B8C0038BFE2541EE000BF0010024000100140CC
:100B9C0000080140000C0140F00A00200024014034
:100BAC00D00A0020200B0020EC0A0020700B002043
:100BBC00240B0020080D002091000020780B002051
:100BCC00C8090020182303FB0CF21C4B9B5C022B66
:100BDC001CD1DDE9000100294FEA9E0308BF332830
:100BEC000EF0030E03F1010306EB4E0E09D3E15C8C
:100BFC009EF8010021EA0001E154104B03F802B009
:100C0C0004E0E25C9EF801100A43E2540CF1010C82
:100C1C00BCF10B0F8ED10A4B03F1140213F8011B1C
:100C2C00934247EA0107F9D1002F3FF437AF054B48
:100C3C0015220549186800F031FD2FE7C80900207E
:100C4C00210B00207C030020200B0020012A2DE921
:100C5C00F04369D101394D0001386A18122303FBA6
:100C6C000023394C23449B7853B9062606FB001607
:100C7C00364B03EBC606364BD3E90023C6E90023FB
:100C8C00122305EB010E03FB00EE14F80E30012BC2
:100C9C0018D1062303FB00122C4B03EBC2032C4A86
:100CAC00D2E90067D3E90023B21A67EB03030027EC
:100CBC009F424FF4FA7608BF96423EBF224B002269
:100CCC0003F80E2005EB010C122303FB00CC04EB04
:100CDC000C0898F80290B9F1010F1CD198F801306A
:100CEC00CBB91B4B4FF0060ED3E900670EFB00137C
:100CFC00164A02EBC30EDEE90023B21A67EB0303BC
:100D0C00002B08BF332A06D30F4BCEE9006703F83C
:100D1C000C9088F801901223294403FB0010012346
:100D2C0020448370BDE8F0835AB90139122301388D
:100D3C0001EB410103FB0010034C23185A702254A1
:100D4C009A70BDE8F08300BF780B0020E80B002000
:100D5C00080D002038B51E4D04461021284602F01F
:100D6C00C7F9214602460120FFF770FF20212846D3
:100D7C0002F0BEF9214602460220FFF767FF402130
:100D8C00284602F0B5F9214602460320FFF75EFF24
:100D9C008021284602F0ACF9214602460420FFF7D8
:100DAC0055FF4FF48071284602F0A2F92146024605
:100DBC000520FFF74BFF4FF40071284602F098F91D
:100DCC002146BDE8384002460620FFF73FBF00BF72
:100DDC00000C0140324910B5D1E90023314C0132ED
:100DEC0043F10003C1E90023204601224FF40051D6
:100DFC0002F084F90120FFF7ADFF204600224FF4EA
:100E0C00005102F07BF901224FF48041204602F0A0
:100E1C0075F90220FFF79EFF204600224FF4804117
:100E2C0002F06CF901224FF40041204602F066F901
:100E3C000320FFF78FFF20460022A4F580644FF4B7
:100E4C00004102F05BF901224FF48051204602F080
:100E5C0055F90420FFF77EFF204600224FF4805105
:100E6C0002F04CF901220821204602F047F9052036
:100E7C00FFF770FF20460022A4F58064082102F0E1
:100E8C003DF901228021204602F038F90620FFF7B7
:100E9C0061FF2046BDE810400022802102F02EB9EF
:100EAC00080D002000100140134610B50222C0F8B6
:100EBC00F42183610A46C3610021FFF76CFA00201C
:100ECC0010BD08B513460A460021FFF764FA00204E
:100EDC0008BD134610B50322C0F8F421C0F8083140
:100EEC000A46C0F80C310021FFF75CFA002010BD57
:100EFC0008B513460A460021FFF754FA002008BD36
:100F0C0008B50423C0F8F43100231A461946FFF73C
:100F1C0042FA002008BD08B50523C0F8F4310023BF
:100F2C001A461946FFF73EFA002008BD0B780370ED
:100F3C004B784370CA788B7803EB022343804A7951
:100F4C000B7903EB02238380CA798B7903EB0223A1
:100F5C00C380704710B504468021FFF7F7F920468F
:100F6C00BDE810400021FFF7F1B9000073B54B78D4
:100F7C0004460D46092B00F2FF80DFE813F0D10088
:100F8C00E800FD00E400FD007B000A00FD00C1004C
:100F9C00970049880B0A013B062B00F2ED80DFE835
:100FAC0013F007000B001700EB00EB0042004D00A4
:100FBC00D0F810321B6816E0027CD0F814320AB953
:100FCC009B6A00E0DB6A0DF106009847022340E0C3
:100FDC00C9B2052920D8DFE801F0030B0F13171B4A
:100FEC00D0F810325B680DF10601207C984731E097
:100FFC00D0F810329B68F6E7D0F81032DB68F2E7D5
:10100C00D0F810321B69EEE7D0F810325B69EAE7D2
:10101C00D0F810329B69E6E7D0F814320DF10602D5
:10102C009B6B984716E0037C002B40F0A580D0F812
:10103C0014320DF106005B6B98470BE0037C002B20
:10104C0040F09A80D0F814320DF106001B6B9847D3
:10105C0007234370BDF80620002A00F09180EB882E
:10106C00002B00F08D809A4228BF1A460146ADF83D
:10107C00062064E08B88002B7ED1CB88002B7BD1A3
:10108C0090F8FC318E78032B06F07F0674D080F834
:10109C00FE613146FFF778F92046FFF731FF0EB1BC
:1010AC00022300E0012384F8FC3169E08978364E94
:1010BC000129317060D890F8FC31022B02D0032B3F
:1010CC0008D059E0002953D001210323416080F856
:1010DC00FC310FE031B9022380F8FC31416000F0A3
:1010EC0018F945E04168012942D0C9B200F011F964
:1010FC0031786160204600F001F9022838D13BE0DC
:10110C00CA88012A38D190F8FC31022B03D0032B6A
:10111C0032D1011D13E00146002341F8083F0EE0D7
:10112C0090F8FC31023B012B26D80123C360D0F888
:10113C0004320BB10323C360022204F10C012046DC
:10114C00FFF7B2FE1CE04B88012B19D108E090F898
:10115C00FC31023B012B0FD84B88012B10D1002303
:10116C00C4F80432D4F8143229469B6820469847B8
:10117C002046FFF7C5FE03E029462046FFF7EAFEAE
:10118C00002002B070BD00BF7401002038B590F88B
:10119C00FC310446032B0D460CD10B79012B09D8DD
:1011AC00D0F814329B689847EB882BB92046FFF790
:1011BC00A7FE01E0FFF7CEFE002038BD70B50A781F
:1011CC008E8802F06002202A04460D46F3B204D148
:1011DC00D0F814329B68984751E04A78012A10D015
:1011EC0026D3032A4BD190F8FC21022A27D0032ABC
:1011FC0043D14A8892B95E0610D01946FFF7A6F87B
:10120C000CE090F8FC21022A19D0032A35D14A8827
:10121C00AABB590608D01946FFF79FF8D4F8143228
:10122C0029469B68204698472046FFF769FE26E032
:10123C0090F8FC21022A02D0032A06D01DE05A069F
:10124C001DD01946FFF782F819E003F07F0516F060
:10125C00800F00EB0515194614BF143505F5827582
:10126C00FFF782F810B101232B6000E02860022206
:10127C0029462046FFF718FE01E0FFF76BFE002021
:10128C0070BD30B5C0B105462B1A15F8014BDBB259
:10129C00002CF9D15B00023313800B7003234B70CD
:1012AC000138022310F8015F35B15A1CCD54D2B26B
:1012BC000233DBB28C54F5E730BD08B580B1D0F801
:1012CC00143213B10023C0F8143209B1C0F8101253
:1012DC00012380F8FC310270FEF7EAFF002008BD04
:1012EC00022008BD19B1C0F814120020704702206A
:1012FC00704708B5FFF712F8002008BD08B5D0F804
:10130C0014320BB9022008BD1B6898470028F9D18C
:10131C0008BD08B5D0F814325B689847002008BDAA
:10132C0038B5044600F502752846FFF7FFFD01238A
:10133C00C4F8F43194F80812B4F80E32C4F8F83149
:10134C0001F01F03012B0CD006D3022B0ED1294622
:10135C002046FFF733FF0EE029462046FFF706FE36
:10136C0009E029462046FFF711FF04E001F0800157
:10137C002046FEF7EBFF002038BD38B50446154675
:10138C0009BBD0F8F431032B26D1D0F80C11D0F8CE
:10139C00102191420AD98B1A9A4228BF1A46C0F8DA
:1013AC000C3192B22946FFF7A3FD15E0D0F81432A8
:1013BC001B6923B190F8FC21032A00D198472046E1
:1013CC00FFF79EFD08E0D0F814329B6923B190F82A
:1013DC00FC21032A00D19847002038BD70B5134674
:1013EC0004460E4600293CD1D0F8F421022A30D113
:1013FC00C569026A954207D9AA1AC261194692B206
:10140C00FFF75FFD334611E08369B3FBF2F502FB96
:10141C0015358DB99A420FD8D0F8F82193420BD2DA
:10142C002A46FFF74EFD2B46C4F8F8511A461946CA
:10143C002046FEF7B7FF0CE0D4F81432DB682BB172
:10144C0094F8FC21032A01D1204698472046FFF747
:10145C0062FD94F80032012B0CD1002384F8003289
:10146C0008E0D0F814325B6923B190F8FC21032A10
:10147C0000D19847002070BD38B5044600221146B3
:10148C0040254023FEF751FF2B46C4F81051002293
:10149C0080212046FEF749FF012384F8FC31D4F863
:1014AC00183225622BB1D4F8143221795B682046AE
:1014BC009847002038BD01740020704790F8FC312B
:1014CC0080F8FD31042380F8FC310020704790F83F
:1014DC00FD3180F8FC310020704708B590F8FC21F4
:1014EC00032A04D1D0F81432DB6903B198470020E9
:1014FC0008BD00002923038000487047A800002085
:10150C00D0F81832002083F83000704710B5D0F8AE
:10151C001842E36A012B07D1D0F81C326178DB68E2
:10152C00207898470023E362002010BD0A23038033
:10153C00004870471001002038B50446D0F8185206
:10154C00D0F81C326978DB682878984720232A4623
:10155C0001212046FEF726FF002038BD38B50C7857
:10156C00054614F06004D0F818322BD0202C51D141
:10157C004A78023A092A20D8DFE802F010081F1F27
:10158C001F1F1F170C058A781A6243E0012203F112
:10159C00200106E04A88120A5A623BE0012203F15C
:1015AC0024012846FFF780FC34E00122DA62284649
:1015BC008A791946FFF78DFC2CE02846FFF7CAFC08
:1015CC00022428E04A780A2A1BD00B2A1FD0062AAC
:1015DC0021D14B881B0A222B07D1CA88D0F81C3288
:1015EC004D2A28BF4D22196809E0212B05D1CA8844
:1015FC000A49092A28BF092201E021462246284629
:10160C0002E0012203F12801FFF74EFC03E08A7887
:10161C009A6200E00024204638BD00BF9C000020E8
:10162C0010B504468121FEF78AFE01212046FEF703
:10163C0086FED4F8183253B1D4F81C329B68984704
:10164C00D4F81802FEF7BAFE0023C4F818320020B2
:10165C0010BD70B50546202303228121FEF765FEDF
:10166C002023032201212846FEF75FFE3420FEF7DB
:10167C00A1FE0646C5F8180270B1D5F81C3200243C
:10168C0080F830405B689847202332460121284679
:10169C00FEF788FE204670BD012070BD10B51346C4
:1016AC0090F8FC21032A0BD1D0F8184294F8302082
:1016BC0032B9012284F830200A468121FEF76BFEF4
:1016CC00002010BD19B1C0F81C1200207047022078
:1016DC00704784B001A880E80E0004B00020704769
:1016EC00B0F840309BB243F43D43A0F840300020AA
:1016FC007047B0F8403023F474535B045B0CA0F8D3
:10170C004030002070470020704784B010B503AC07
:10171C0084E80E00BDE810400123A0F840300023FF
:10172C00A0F8403004B0A0F84430A0F8503018466F
:10173C007047CB7830B50A78032B2BD8DFE803F051
:10174C00021F0C1530F822309BB223F4EC4323F02B
:10175C00700343F400731BE030F8223023F4EC43A5
:10176C0023F070031B041B0C12E030F822309BB2E8
:10177C0023F4EC4323F0700343F4C06308E030F827
:10178C0022309BB223F4EC4323F0700343F48063C8
:10179C0020F822300C7830F8243044F4004223F046
:1017AC00F0031B051B0D42F08002134320F824307C
:1017BC008B7A0D78002B74D14A788B883AB3B0F8B9
:1017CC0050205B0892B202EBC5045B0000EB4404B2
:1017DC00C4F800340A7830F822305B060BD530F8A8
:1017EC00223023F0F0031B051B0D43F4004343F0A0
:1017FC00C00320F822300A7830F8223023F4E0437A
:10180C0023F040031B041B0C83F02003FBE0B0F817
:10181C0050405B08A4B204EBC50404345B0000F533
:10182C00806242F81430B0F850400B780D69A4B2C5
:10183C0004EBC3043E2D04F106040BD9C5F34F137E
:10184C00ED0604BF03F1FF339BB26FEAC3636FEA8B
:10185C00534306E0C5F34F03ED0744BF01339BB27E
:10186C009B029BB242F814300A7830F822305C04A8
:10187C000BD530F8223023F0F0031B051B0D43F47D
:10188C00404343F0800320F822300A7830F82230AD
:10189C0023F4804323F070031B041B0C83F440538C
:1018AC00B1E030F8253000F5806423F4F8731B05A3
:1018BC001B0D43F4014343F0800320F82530B0F8AE
:1018CC0050300A789BB203EBC203CA88520852000C
:1018DC0044F81320B0F850300A789BB203EBC203E3
:1018EC000A8904335208520044F813204B780A78C2
:1018FC00002B46D130F822305B040BD530F8223067
:10190C0023F0F0031B051B0D43F4404343F080030D
:10191C0020F822300A7830F822305D060BD530F8EA
:10192C00223023F0F0031B051B0D43F4004343F05E
:10193C00C00320F822300A7830F8223023F0F0036C
:10194C001B051B0D43F4004343F0C00320F8223069
:10195C000A7830F8223023F4804323F070031B0400
:10196C001B0C83F4405343F4004343F0800320F8F2
:10197C0022300A7830F8223023F0C0031B051B0DEF
:10198C0041E030F822305C040BD530F8223023F0E3
:10199C00F0031B051B0D43F4404343F0800320F878
:1019AC0022300A7830F822305B060BD530F8223022
:1019BC0023F0F0031B051B0D43F4004343F0C0035D
:1019CC0020F822300A7830F8223023F0F0031B057F
:1019DC001B0D43F4404343F0800320F822300A7877
:1019EC0030F8223023F0C0031B051B0D43F40043D9
:1019FC0043F0800320F822300A7830F8223023F0AC
:101A0C00F0039B049B0C43F4004343F0800320F849
:101A1C002230002030BD10B58C7A4A780B781CBB74
:101A2C0082B130F8232052065BD530F8232022F007
:101A3C00F0021205120D42F4004242F0C00220F8EE
:101A4C0023204EE030F82320540440F18D8030F8F0
:101A5C00232022F0F0021205120D42F4404242F013
:101A6C00800220F823207FE0002A42D130F8232086
:101A7C0052040BD530F8232022F0F0021205120D7F
:101A8C0042F4404242F0800220F823200A7830F8D9
:101A9C0022305C060BD530F8223023F0F0031B0506
:101AAC001B0D43F4004343F0C00320F822300A78A6
:101ABC0030F8223023F0F0031B051B0D43F40043D8
:101ACC0043F0C00320F822300A7830F8223023F09B
:101ADC00F0039B049B0C43F4004343F0800320F879
:101AEC0022300A7830F8223023F0C0031B051B0D7E
:101AFC0041E030F8232052040BD530F8232022F09B
:101B0C00F0021205120D42F4404242F0800220F81D
:101B1C0023200A7830F822305B060BD530F82230BF
:101B2C0023F0F0031B051B0D43F4004343F0C003EB
:101B3C0020F822300A7830F8223023F0F0031B050D
:101B4C001B0D43F4404343F0800320F822300A7805
:101B5C0030F8223023F0C0031B051B0D43F4004367
:101B6C0043F0800320F822300A7830F8223023F03A
:101B7C00F0039B049B0C43F4004343F0800320F8D8
:101B8C002230002010BD0A787AB903889BB223F466
:101B9C00804323F0400383F4805383F0100343F419
:101BAC00004343F0800303801CE04B7853B130F8C2
:101BBC00223023F4E04323F040031B041B0C83F07E
:101BCC00100309E030F8223023F4804323F0700333
:101BDC001B041B0C83F4805343F4004343F0800339
:101BEC0020F82230002070474B780A78DBB130F8AF
:101BFC0022305B060BD530F8223023F0F0031B05A6
:101C0C001B0D43F4004343F0C00320F822300A7844
:101C1C0030F8223023F4E04323F040031B041B0C68
:101C2C0083F030031AE030F822305B040BD530F827
:101C3C00223023F0F0031B051B0D43F4404343F00B
:101C4C00800320F822300A7830F8223023F48043C5
:101C5C0023F070031B041B0C83F4405343F4004328
:101C6C0043F0800320F822300020704711B9802304
:101C7C00A0F84C30002070470020704700207047BF
:101C8C00B0F8440080B2704700207047013300F573
:101C9C00806010B55B1000EB42020024A34205D01B
:101CAC0031F8020B22F824000134F7E710BDF8B527
:101CBC00044648780E4601288B690A698F7A57D1F9
:101CCC001D46934283BF9D1A8D611546002398BF14
:101CDC008B61ABB27FB98A8820464969FFF7D6FF82
:101CEC00B4F8503032789BB203EBC20304EB4303DD
:101CFC00C3F8045430E00A78204634F82210D2009D
:101D0C0011F0400FB4F8501089B20A4404EB4202AF
:101D1C00C2F80454716914BF3289F288FFF7B6FF18
:101D2C007378327853B934F8223023F0F0031B0562
:101D3C001B0D43F4004343F0C0030BE0012B0BD10C
:101D4C0034F8223023F0F0031B051B0D43F4404301
:101D5C0043F0800324F82230327834F8223023F414
:101D6C00E04323F040031B041B0C83F0300366E0BC
:101D7C0093428BBF9B1A00228B618A6188BF1346EA
:101D8C00097827B300BBB4F850203E2B92B202EB7B
:101D9C00C10101F1020104F580600BD9C3F34F12AC
:101DAC00DD0604BF02F1FF3292B26FEAC2626FEA43
:101DBC00524206E0C3F34F02DF0744BF013292B236
:101DCC00920292B240F81120727831780ABBB4F8C2
:101DDC0050203E2B92B202EBC10101F1060104F539
:101DEC0080600BD9C3F34F12DD0604BF02F1FF3242
:101DFC0092B26FEAC2626FEA524206E0C3F34F023C
:101E0C00DB0744BF013292B2920292B240F8112029
:101E1C000AE0012A08D1B4F8502092B202EBC101B9
:101E2C0004EB4101C1F80434327834F8223023F445
:101E3C00804323F070031B041B0C83F4405343F4C6
:101E4C00004343F0800324F822300020F8BD013316
:101E5C0000F5806010B55B1000EB42020024A34239
:101E6C0005D052F8240021F814000134F7E710BD16
:101E7C0003682DE9F743DC07054661D53C4C3D4E24
:101E8C00E36943F08053E361E36903F0805301930A
:101E9C00019B336843F48073336001F031FE0746D5
:101EAC003368D80506D401F02BFEC01B6428F7D983
:101EBC0003205AE0226A6B682D48534013F4407F8C
:101ECC003ED0016A4FF4803321F4407793FAA3F2A9
:101EDC00B2FA82F2284E4FF0010E46F822E093FA45
:101EEC00A3F3B3FA83F30022890746F82320076291
:101EFC0006D4236A23F440726B68134323621FE0F9
:101F0C0001F0FEFD02268046374641F2883996FAEA
:101F1C00A6F396FAA6F30BB1226A00E0626A97FA6E
:101F2C00A7F3B3FA83F303F01F0322FA03F3DA07E0
:101F3C00DFD401F0E5FDC8EB00004845E7D9B7E771
:101F4C002868830706D50A494B6823F44042AB68DE
:101F5C0013434B6010F0100007D0054900204B686C
:101F6C0023F48002EB6813434B6003B0BDE8F083AD
:101F7C0000100240007000400004424203682DE94A
:101F8C00F743DE07054604D42B689C0700F19680C6
:101F9C0015E1B44C636803F00C03042B07D06368A1
:101FAC0003F00C03082B16D16368D80313D54FF438
:101FBC00003393FAA3F2226893FAA3F3B3FA83F3F0
:101FCC0003F01F0322FA03F3D907DDD56B68002B4E
:101FDC00DAD1012079E223684FF4003623F4803300
:101FEC002360236823F48023236001F089FD0746D6
:101FFC0096FAA6F39B4B216896FAA6F2B2FA82F2F5
:10200C0002F01F0221FA02F2D20706D501F078FD88
:10201C00C01B6428ECD9032057E26A68B2F5803FF4
:10202C0015D06AB91A684FF4003622F480321A605F
:10203C001A6822F480221A6001F062FD07462FE034
:10204C00B2F5A02F1A6806D142F480221A601A68E1
:10205C0042F4803205E022F480321A601A6822F4CD
:10206C0080221A6001F04CFD07464FF4003696FAB8
:10207C00A6F3226896FAA6F3B3FA83F303F01F03D0
:10208C0022FA03F3DB073FF57FAF01F039FDC01BEC
:10209C006428ECD9BFE701F033FDC01B6428BAD823
:1020AC0096FAA6F3226896FAA6F3B3FA83F303F032
:1020BC001F0322FA03F3D807EDD465E7694C636874
:1020CC0013F00C0F07D0636803F00C03082B22D11C
:1020DC006368D9031FD4022393FAA3F2226893FAFC
:1020EC00A3F3B3FA83F303F01F0322FA03F3DA0723
:1020FC0003D52B69012B7FF46CAF2368F82292FA7D
:10210C00A2F2B2FA82F2696923F0F80301FA02F240
:10211C001343236053E02A6901237AB393FAA3F2A1
:10212C00B2FA82F2920002F1844202F58402136048
:10213C0001F0E6FC0746022696FAA6F34948226807
:10214C0096FAA6F3B3FA83F303F01F0322FA03F310
:10215C00DB0705D401F0D4FCC01B0228ECD95AE7EC
:10216C000368F82292FAA2F2B2FA82F2696923F0B9
:10217C00F80301FA02F21343036020E093FAA3F38D
:10218C00B3FA83F39B0003F1844303F584031A60D1
:10219C0001F0B6FC0746022696FAA6F3226896FAD8
:1021AC00A6F3B3FA83F303F01F0322FA03F3D80761
:1021BC0005D501F0A5FCC01B0228EDD92BE72B6837
:1021CC00190746D5AA69274C0123274912B393FA5C
:1021DC00A3F2B2FA82F241F8223001F091FC0746E8
:1021EC00022696FAA6F396FAA6F3626A96FAA6F374
:1021FC00B3FA83F303F01F0322FA03F3DA0705D4CF
:10220C0001F07EFCC01B0228EBD904E7012001F091
:10221C007DFC1EE093FAA3F3B3FA83F341F8232079
:10222C0001F06EFC0746022696FAA6F396FAA6F380
:10223C00626A96FAA6F3B3FA83F303F01F0322FA49
:10224C0003F3DB0705D501F05BFCC01B0228EBD9BF
:10225C00E1E62B68580709D4EA69002A40F0AA8005
:10226C0001E100BF0010024080044242984C994E9C
:10227C00E36943F08053E361E36903F08053019316
:10228C00019B336843F48073336001F039FC0746DB
:10229C003368D90505D401F033FCC01B6428F7D989
:1022AC00B9E6236A022623F001032362236A374628
:1022BC0023F00403236201F023FC41F288398046A9
:1022CC0096FAA6F396FAA6F30BB1226A00E0626ABC
:1022DC0097FAA7F3B3FA83F303F01F0322FA03F37D
:1022EC00DA0706D501F00CFCC8EB00004845E7D92D
:1022FC0091E6EB68012B16D07BB9236A022623F0FA
:10230C0001032362236A374623F00403236201F09E
:10231C00F7FB41F28839804644E0052B236A06D14D
:10232C0043F004032362236A43F0010305E023F026
:10233C0001032362236A23F00403236201F0E0FB10
:10234C0002268146B04641F2883796FAA6F396FAF1
:10235C00A6F30BB1226A00E0626A98FAA8F3B3FA0A
:10236C0083F303F01F0322FA03F3DB073FF574AF8B
:10237C0001F0C6FBC9EB0000B842E6D94BE6626A35
:10238C0097FAA7F3B3FA83F303F01F0322FA03F3CC
:10239C00D8077FF561AF01F0B3FBC8EB00004845EF
:1023AC003FF639AE96FAA6F396FAA6F3002BE6D0D2
:1023BC00226AE5E7464C636803F00C03082B3FF4F4
:1023CC0008AE022A4FF080735CD193FAA3F3B3FAF0
:1023DC0083F39B0003F1844303F5840300221A600A
:1023EC0001F08EFB80464FF0007696FAA6F3384F3C
:1023FC00226896FAA6F3B3FA83F303F01F0322FACA
:10240C0003F3D90731D42E6AB6F5803F05D179682C
:10241C0021F40030A9680143796063686A6A23F487
:10242C0074133243134363604FF0807393FAA3F336
:10243C00B3FA83F39B0003F1844303F58403012275
:10244C001A6001F05DFB06464FF0007595FAA5F396
:10245C00226895FAA5F3B3FA83F303F01F0322FA6B
:10246C0003F3DA0708D500202FE001F049FBC8EB95
:10247C0000000228B9D9CEE501F042FB801B0228EE
:10248C00E4D9C8E593FAA3F3B3FA83F39B0003F101
:10249C00844303F5840300221A6001F031FB0646E5
:1024AC004FF0007595FAA5F3226895FAA5F3B3FAE7
:1024BC0083F303F01F0322FA03F3DB07D3D501F0F8
:1024CC001FFB801B0228EDD9A5E503B0BDE8F08306
:1024DC000010024000700040744A2DE9F04113686E
:1024EC00044603F007038B420E466ED2136823F0AA
:1024FC0007030B431360136803F00703994202D0E0
:10250C000120BDE8F08101688A0706D56848436858
:10251C0023F0F002A36813434360CB070BD421686C
:10252C004F0740F1B3806248436823F4E062E368EC
:10253C0013434360AAE062685D4D012A02D14FF457
:10254C00003304E0022A0CBF4FF00073022393FA0D
:10255C00A3F1296893FAA3F3B3FA83F303F01F03EF
:10256C0021FA03F3DE07CBD56B6841F2883723F0F1
:10257C0003031A436A6001F0C3FA63680646012B31
:10258C000CD16B6803F00C03042BC8D001F0B8FA23
:10259C00801BB842F5D90320BDE8F081022B0FD186
:1025AC006B6803F00C03082BB9D001F0A9FA801B5F
:1025BC00B842F5D9EFE701F0A3FA801BB842EAD88C
:1025CC006B6813F00C0FF6D1A9E701688D0706D5DF
:1025DC003748436823F0F002A36813434360C807ED
:1025EC000BD4324A136823F0070333431360136888
:1025FC0003F007039E4283D191E762682C4D012AB8
:10260C0002D14FF4003304E0022A0CBF4FF00073E8
:10261C00022393FAA3F1296893FAA3F3B3FA83F391
:10262C0003F01F0321FA03F3D9077FF569AF6B6839
:10263C0041F2883823F003031A436A6001F060FA10
:10264C0063680746012B0AD16B6803F00C03042B5B
:10265C00C7D001F055FAC01B4045F5D99BE7022BBA
:10266C000FD16B6803F00C03082BBAD001F048FAB9
:10267C00C01B4045F5D98EE701F042FAC01B40451E
:10268C0089D86B6813F00C0FF6D1AAE70B0707D5A6
:10269C00074A2169536823F4605343EAC10353602A
:1026AC00002001F001FA0020BDE8F081002002407A
:1026BC00001002401F4B70B503F110052E4686B07A
:1026CC0002AC224618685968083303C2AB42144660
:1026DC00F7D13388184CADF80430606800F00C0367
:1026EC00082B24D14FF4701393FAA3F3B3FA83F3AA
:1026FC0000F4701222FA03F306AA134413F8101C08
:10270C00C30311D562684FF4003393FAA3F3B3FA01
:10271C0083F002F40033C34006AA134413F8140CDC
:10272C00064BB3FBF0F000E00548484300E00348DB
:10273C0006B070BD303C00080010024000127A0058
:10274C0000093D0008B5FFF7B5FF084BF0225B68A8
:10275C0092FAA2F2B2FA82F203F0F003D340044AE6
:10276C00D35CD840034B186008BD00BF001002407A
:10277C00C33C00081C01002011F0800F1BBF01F0AE
:10278C007F0100EB411000EB4110283008BF00F531
:10279C00027012B98272838004E00122C3801B0C88
:1027AC0082720381002070472DE9F041044686B007
:1027BC0000285FD090F8E93303F0FF021BB980F8D2
:1027CC00E823FDF71DFD25466E46032355F8100B37
:1027DC0084F8E933FEF78DFF0FCD0FC62B68271D4C
:1027EC00336097E80E002068FEF773FF0021206825
:1027FC00FEF789FF002123462246084604F1100506
:10280C00012682F82810918601310F2982F829605F
:10281C0082F82B009063D063106402F12002F0D197
:10282C000022114683F808229A8601320F2A83F877
:10283C00091283F80B12C3F81812C3F81C12C3F850
:10284C0020124FF0000803F12003EBD16E460FCDA0
:10285C000FC62B68336097E80E002068FEF755FF13
:10286C00012384F82480206884F8E933FFF706FA02
:10287C00404600E0012006B0BDE8F08190F8E83356
:10288C0010B5012B04460ED0012180F8E813FDF79A
:10289C0096FD2068FFF7F0F92068FEF721FF002075
:1028AC0084F8E80310BD022010BD90F8E82310B5A1
:1028BC00012A04460BD0012280F8E82384F8241066
:1028CC000068FFF7D3F9002084F8E80310BD02205C
:1028DC0010BD38B5044648B2002801F07F05B5BFDD
:1028EC0004EB451104EB4111283101F50271C00FC5
:1028FC000D704870CB7094F8E8330A61012B09D045
:10290C00012384F8E8332068FEF713FF002084F8D5
:10291C00E80338BD022038BD4BB2002B01F07F021A
:10292C00B5BF00EB421100EB4111283101F50271EA
:10293C00DB0F10B50A704B7090F8E8330446012B8E
:10294C0009D0012380F8E8330068FFF764F8002011
:10295C0084F8E80310BD022010BD70B5044601F0E8
:10296C007F0670012518C5F820320023C5F81C22FB
:10297C00C5F8243285F8093285F8086294F8E833F2
:10298C00012B0CD0012300F50270211884F8E833D8
:10299C002068FFF78CF9002084F8E80370BD022052
:1029AC0070BD70B5044601F07F06700125182B64CC
:1029BC0000236B640123EA6385F8293085F82860CD
:1029CC0094F8E8239A420AD02830211884F8E83386
:1029DC002068FFF76CF9002084F8E80370BD022032
:1029EC0070BD2DE9F34104460068FFF749F9000476
:1029FC0016D42068FFF744F9410540F1DB812268C9
:102A0C002046B2F8443023F480631B041B0CA2F85C
:102A1C004430FDF72CFC00212046FFF746FFC9E1AE
:102A2C000023ADF8043004F57B77ADF80630206850
:102A3C00B0F844309BB2ADF804301B04D9D5BDF8C6
:102A4C00045015F00F0540F0B580BDF80410038854
:102A5C0001F0100189B259BB23F4E14323F0700358
:102A6C001B041B0C0380B0F8503094F828209BB248
:102A7C0003EBC20300EB4300D0F80434E26BC3F366
:102A8C00090363641344E3632046FDF7E5FB94F804
:102A9C002430002BCBD0226C002AC8D194F82430DF
:102AAC00216843F08003A1F84C3084F82420BEE761
:102ABC009BB2ADF80630BDF806301A051ED5B0F83D
:102ACC00503094F808229BB203EBC20300EB430393
:102ADC00D3F80C34B4F80C22C3F30903C4F8243231
:102AEC003946FFF7B4F922682046138823F07003A7
:102AFC001B051B0D1380FDF7A1FB98E7BDF80630F5
:102B0C001B0494D5038823F070031B051B0D038055
:102B1C00B0F8503094F808229BB203EBC20300EBE0
:102B2C004303D3F80C34C3F30903C4F8243263B160
:102B3C00B4F80C22D4F81C12FFF789F9D4F81C2233
:102B4C00D4F824321344C4F81C3200212046FDF77B
:102B5C007BFB2268D4F81852B2F850103E2D89B283
:102B6C0001F1060102F580600BD9C5F34F13EE0697
:102B7C0004BF03F1FF339BB26FEAC3636FEA5343A5
:102B8C0006E0C5F34F03ED0744BF01339BB29B0234
:102B9C009BB240F81130138823F4804323F0700368
:102BAC001B041B0C83F4405343F4004343F0800399
:102BBC0013803CE730F825309BB2ADF80630BDF8F9
:102BCC000630190477D530F825304FEA451823F034
:102BDC0070031B051B0D20F8253004EB080191F840
:102BEC001232ABB9B0F8503091F808229BB203EB1B
:102BFC00C20300EB4303D3F80C64C6F30906DEB33F
:102C0C00B1F80C223346D1F81C12FFF720F933E04F
:102C1C0091F8083230F82320DB0012F4804FB0F822
:102C2C00502092B2134400EB430308D0D3F8046451
:102C3C00C6F309067EB13346B1F80E2207E0D3F88D
:102C4C000C64C6F3090636B13346B1F81022D1F83C
:102C5C001C12FFF7FCF804EB080393F80812226827
:102C6C0032F8213023F0F0031B051B0D43F4004315
:102C7C0043F0C00322F8213004EB0801D1F82432D0
:102C8C00D1F81C223344C1F82432D1F8203232441A
:102C9C00C1F81C221BB1D1F81802864206D2A044FE
:102CAC0098F808122046FDF7CFFA04E091F80812C4
:102CBC002046FFF752FEBDF806301A067FF5B7AE78
:102CCC0020686E0130F82530A11923F4E14323F07C
:102CDC0070031B041B0C20F8253091F832300235A0
:102CEC00B3B9B0F8503091F828209BB203EBC20373
:102CFC0000EB4303D3F8043404EB4515C3F3090389
:102D0C006B60002B38D08A8DC96BFEF7BFFF33E0A8
:102D1C0091F8283030F82320DB0012F0400FB0F887
:102D2C00502092B2134400EB430309D0D3F804347F
:102D3C0004EB4515C3F309036B606BB1CA8D08E056
:102D4C00D3F80C3404EB4515C3F309036B601BB1CA
:102D5C000A8EC96BFEF79AFFA31993F82810226804
:102D6C0032F8213023F0F0031B051B0D43F44043D4
:102D7C0043F0800322F821302068A119B0F85020CC
:102D8C0091F8283092B202EBC30300EB4303D3F863
:102D9C000424CB6BC2F309024A641A440B6CCA6359
:102DAC00204691F8281013B9FDF756FA3FE6FFF7C5
:102DBC00F8FD3CE62068FEF763FF470408D522685F
:102DCC00B2F8443023F480431B041B0CA2F84430AB
:102DDC002068FEF755FF860408D52268B2F8443007
:102DEC0023F400531B041B0CA2F844302068FEF79C
:102DFC0047FFC50418D522682046B2F8403023F0AE
:102E0C0004031B041B0CA2F840304FF43D43A2F802
:102E1C004030FDF749FA2268B2F8443023F480536D
:102E2C001B041B0CA2F844302068FEF729FF000598
:102E3C001DD52068B0F8443023F400631B041B0C30
:102E4C00A0F84430B0F840309BB243F00803A0F82F
:102E5C004030B0F840309BB243F00403A0F840304F
:102E6C00FEF70EFFC10402D42046FDF70DFA2068D0
:102E7C00FEF706FF82050BD522682046B2F84430D7
:102E8C0023F400731B041B0CA2F84430FDF7EBF980
:102E9C002068FEF7F5FEC30508D52268B2F8443069
:102EAC0023F480731B041B0CA2F8443002B0BDE861
:102EBC00F08138B54BB2002B01F07F05B5BF00EBAC
:102ECC00451100EB4111283101F502710122DB0F94
:102EDC00EDB28A700D704B7090F8E8330446934253
:102EEC000ED080F8E8230068FEF74DFE25B904F5F6
:102EFC007B712068FEF7C8FE002084F8E80338BD1B
:102F0C00022038BD38B54BB2002B01F07F02B5BFA3
:102F1C0000EB421100EB4111283101F50271DB0F7E
:102F2C0000248C700A704B7090F8E8330546012B26
:102F3C0009D0012380F8E8330068FEF755FE85F8C8
:102F4C00E843204638BD022038BD00002DE9F74F7C
:102F5C00002426465F4BDFF88CE1DFF88CC10122A0
:102F6C000D68B24032EA050540F0AC804D68122D78
:102F7C0028D00ED8022D22D004D835B3012D2DD156
:102F8C00CC682BE0032D18D0112D27D1CC6804343C
:102F9C0024E0514FBD4218D007D8DFF85081454589
:102FAC0013D008F58038454505E04C4FBD420CD098
:102FBC0075450AD0654511D107E000240EE0CC68B8
:102FCC0008340BE0CC680C3408E08C682CB1012C74
:102FDC000CBF02614261082400E00424FF2A97BF61
:102FEC008346A6F10805D0F80090B50084BFD0F850
:102FFC000490AD004FF00F0808FA05FA29EA0A0907
:10300C0004FA05F588BF00F1040B49EA0505CBF875
:10301C000050D1F8049019F0805F53D0304D304FF0
:10302C00AD6906F0030A45F00105BD61BD694FEAC3
:10303C008A0A05F001050195019D26F0030505F1AD
:10304C00804505F58035D5F808B0A7F5843708FA22
:10305C000AF8B8422BEA08080CD007F58067B8428A
:10306C000BD007F58067B8420CBF4FF0020B4FF046
:10307C00030B04E04FF0000B01E04FF0010B0BFAD7
:10308C000AFA4AEA080AC5F808A01D6819F4803F34
:10309C0014BF154395431D605D6819F4003F14BFC0
:1030AC00154395435D609D6819F4801F14BF15434B
:1030BC0095439D60DD6819F4001F14BF2A4325EA6F
:1030CC000202DA600136102E7FF449AF03B0BDE87E
:1030DC00F08F00BF000401400000211000003110EF
:1030EC0000100240000032100000221000001110ED
:1030FC008368194214BF01200020704702B90904EB
:10310C000161704710B500B390F821300BB980F80D
:10311C0020308268416804681143C26823681143F7
:10312C00026923F47F531143426923F030031143A6
:10313C0082691143C2690A431343236001220023AD
:10314C00436380F82120184610BD012010BD30B516
:10315C0090F82040012C4FF0020423D080F821403D
:10316C000468012580F82050256825F001052560AC
:10317C00636043680020102B0BBFA260A160E1606C
:10318C00E260236843F002032360236843F00403E6
:10319C002360236843F008032360236843F0010392
:1031AC00236030BD204630BD914B70B51968914DF0
:1031BC0003680446AB4213D08F4A934212D01432A8
:1031CC00934211D01432934211D01432934211D045
:1031DC00143293420CBF4FF400024FF000620BE02C
:1031EC00082209E0802207E04FF4006204E04FF46B
:1031FC00004201E04FF400220A4238D01A6812074C
:10320C0035D51A68AB4222F008021A6013D07A4AFC
:10321C00934212D01432934211D01432934211D0F3
:10322C001432934211D0143293420CBF4FF400036A
:10323C004FF000630BE0082309E0802307E04FF414
:10324C00006304E04FF4004301E04FF40023684AAC
:10325C005360636B43F001036363042384F82130F0
:10326C00002384F82030236B0BB120469847604B29
:10327C0019682368AB4213D05F4A934212D01432C0
:10328C00934211D01432934211D01432934211D084
:10329C00143293420CBF4FF480024FF080620BE06B
:1032AC00042209E0402207E04FF4806204E04FF46E
:1032BC00804201E04FF480220A4234D01A6856074B
:1032CC0031D51A6890065EBF1A6822F004021A60A3
:1032DC00AB4213D0484A934212D01432934211D0CD
:1032EC001432934211D01432934211D014329342BF
:1032FC000CBF4FF480034FF080630BE0042309E014
:10330C00402307E04FF4806304E04FF4804301E076
:10331C004FF48023364A5360112384F82130E36A3A
:10332C000BB120469847324B19682368AB4213D037
:10333C00314A934212D01432934211D01432934238
:10334C0011D01432934211D0143293420CBF4FF46B
:10335C0000124FF000720BE0022209E0202207E07D
:10336C004FF4007204E04FF4005201E04FF40032CD
:10337C000A423BD01A68910738D51A6892065EBF8C
:10338C001A6822F002021A60AB4213D01A4A934216
:10339C0012D01432934211D01432934211D0143201
:1033AC00934211D0143293420CBF4FF400134FF0E0
:1033BC0000730BE0022309E0202307E04FF40073B5
:1033CC0004E04FF4005301E04FF40033084A53601B
:1033DC00636B6363012384F82130002384F820306D
:1033EC00A36A1BB12046BDE87040184770BD00BFF2
:1033FC0000000240080002401C000240074A000284
:10340C00D36800F4E06023F4E0631B041B0C43F06E
:10341C00BF6343F400330343D360704700ED00E017
:10342C00174B30B5DB68C3F30223C3F107041D1D32
:10343C00042C28BF0424062D4FF0010505FA04F4D2
:10344C0004F1FF348CBF033B00230C409C4005FA75
:10345C0003F3013B1A40002842EA04024FEA02122D
:10346C00AFBF00F16040074B00F00F00D2B2A5BF18
:10347C00D2B200F561401A5480F8002330BD00BF71
:10348C0000ED00E014ED00E04209012300F01F0004
:10349C0003FA00F0014B43F82200704700E100E012
:1034AC000138B0F1807F0AD2064B074AF0215860F0
:1034BC0082F823100020072298601A6070470120C0
:1034CC00704700BF10E000E000ED00E0044B042862
:1034DC001A680CBF42F0040222F004021A60704712
:1034EC0010E000E0704708B5FFF7FCFF08BD70471F
:1034FC00436A10B59A6A12F0500F1BD19A6A42F4C3
:10350C0000729A621A68926802F46022B2F5602F17
:10351C000CD1DA6852B99A6A22F480729A629A6A69
:10352C00D2045EBF9A6A42F001029A621846FFF713
:10353C00DEFF10BD1B6ABDE810401B6B18477047BF
:10354C0008B5406AFFF7FBFF08BD7047406A08B535
:10355C00836A43F040038362C36A43F00403C3628B
:10356C00FFF7F3FF08BD0000F7B50023019390F8B7
:10357C002430012B00F0AE80012380F824304B68FE
:10358C000468062B0D6818D8676B4FF4787292FAA2
:10359C00A2F6B6FA86F6013B92FAA2F2B2FA82F2DF
:1035AC005E4353434FF01F0E0EFA06F627EA06064B
:1035BC0005FA03F33343636330E00C2B4FF478725A
:1035CC0016D8276B92FAA2F6B6FA86F6073B92FA51
:1035DC00A2F2B2FA82F25E435A434FF01F0E0EFA79
:1035EC0006F627EA060605FA02F23243226315E0D4
:1035FC00E76A92FAA2F6B6FA86F60D3B92FAA2F2B6
:10360C00B2FA82F25E4353434FF01F0E0EFA06F6E7
:10361C0027EA060605FA03F33343E362092D4FF05C
:10362C0038038E6818D9D4F80CE093FAA3F7B7FADC
:10363C0087F7A5F10A0193FAA3F3B3FA83F201FB1E
:10364C0007F35143072707FA03F32EEA030306FA9D
:10365C0001F21A43E26013E0276993FAA3F1B1FA7D
:10366C0081F193FAA3F3B3FA83F369436B43072213
:10367C0002FA01F127EA010106FA03F20A43226178
:10368C00A5F11003012B01D900231EE0134B9C4222
:10369C0016D1A3681B02F7D4A368102D43F40003C2
:1036AC00A360F1D10E4B0F4A1B68B3FBF2F20A2355
:1036BC0053430193019B002BE6D0019B013BF8E7A0
:1036CC00836A43F0200383620123002280F82420C4
:1036DC00184600E0022003B0F0BD00BF00240140FA
:1036EC001C01002040420F0073B5002301930368B6
:1036FC0004469A68D20701D5002026E09A6842F069
:10370C0001029A60124B134A1B68B3FBF2F301934C
:10371C00019B13B1019B013BF9E700F0F1F906465F
:10372C0023689B6813F00105E6D100F0E9F9801BD2
:10373C000228F5D9A36A84F8245043F01003A3623D
:10374C00E36A012043F00103E36202B070BD00BFE5
:10375C001C01002040420F0090F8243010B5012BC2
:10376C00044655D0012380F82430FFF7BDFF002814
:10377C004AD1A36A274A23F4407323F0010343F48C
:10378C008073A3622368934204D123494A6812F4DC
:10379C00702F05D1A26A22F48012A2625A6804E04A
:1037AC00A26A42F48012A2624A68520541BFA26A20
:1037BC0022F4405242F48052A262A26A12F4805265
:1037CC001CBFE26A22F00602E262002284F8242086
:1037DC006FF002021A609A6802F46022B2F5602F50
:1037EC000CD10C4A934205D1A2F58062526812F4B6
:1037FC00702F03D19A6842F4A00202E09A6842F456
:10380C0080129A60002010BD002384F8243010BD73
:10381C00022010BD00280140002401402DE9B841D0
:10382C009046414B026804469A420F4602D03F49EB
:10383C008A4203D15B6813F4702F6FD194F8243053
:10384C00012B6ED0012384F824302046FFF74CFF67
:10385C0000285ED1A06A216820F47060334B20F000
:10386C00010040F480709942A06204D12E4A536842
:10387C0013F4702F0DD1A36A23F48013A3624B6849
:10388C005A0513D5A36A23F4405343F48053A3621F
:10389C000CE0A36A43F48013A36253685B0541BF39
:1038AC00A06A20F4405040F48050A062A36A206AC1
:1038BC0013F4805318BFE36A4FF0000518BF23F0D0
:1038CC000603E3621A4B84F824508362194B3A4680
:1038DC00C362194B4C3103636FF0020341F84C3C4B
:1038EC0051F8443C43F4807341F8443C4346FFF7A1
:1038FC002EFC236828469A6802F46022B2F5602FE9
:10390C009A680CBF42F4A00242F480129A60BDE89F
:10391C00B881002384F82430BDE8B8810120BDE8CB
:10392C00B8810220BDE8B881002401400028014084
:10393C00FD3400084D3500085935000838B50368CA
:10394C0004469A68D20701D4002038BD9A6822F048
:10395C0001029A6000F0D4F8054623689B68DB07E7
:10396C00F2D500F0CDF8401B0228F6D9A36A01204D
:10397C0043F01003A362E36A43F00103E36238BD32
:10398C0038B50446002800F08880836A23B9C362E6
:10399C0080F82430FCF786FD2046FFF7CFFFA36AA2
:1039AC0013F0100FA36A75D1002873D123F4885338
:1039BC0023F0020343F00203A362E068022393FAAC
:1039CC00A3F3B3FA83F36168E26900FA03F30A43E1
:1039DC00A1681343B1F5807F05D0012914BF0022E3
:1039EC004FF4807200E00A466569012D15D160B96B
:1039FC004FF4604090FAA0F0B0FA80F5A06942F460
:103A0C0000620138A840024307E0A06A40F02000A1
:103A1C00A062E06A40F00100E0622068B1F5807FAE
:103A2C00456825F4694542EA0502426085681C4AEE
:103A3C0002EA050242EA0302826001D001290AD19E
:103A4C004FF4700292FAA2F2B2FA82F221690139B1
:103A5C0001FA02F200E00022C16A21F470010A436B
:103A6C00C26281680F4A0A40934208D10020E0628A
:103A7C00A36A23F0030343F00103A36238BDA36AD6
:103A8C0023F0120343F01003A362E36A43F0010333
:103A9C00E36202E043F01003A362012038BD00BFD3
:103AAC00FDF7E1FFFE0E1FFF10B50446FEF74AFEC0
:103ABC004FF47A73B0FBF3F0FFF7F2FC00222146CF
:103ACC004FF0FF30FFF7ACFC002010BD074A08B5E3
:103ADC001368032043F010031360FFF78FFC0020E2
:103AEC00FFF7E2FFFCF7A4FC002008BD0020024019
:103AFC00024A136801331360704700BF780100203D
:103B0C00014B1868704700BF7801002013B5019075
:103B1C00FFF7F6FF0446FFF7F3FF019B001B9842EB
:103B2C00F9D302B010BD00000F4B1A6842F001022D
:103B3C001A6059680D4A0A405A601A6822F0847259
:103B4C0022F480321A601A6822F480221A605A68B1
:103B5C0022F4FE025A604FF41F029A60044B4FF09D
:103B6C0000629A60704700BF001002400000FFF82E
:103B7C0000ED00E0002103E00B4B5B584350043197
:103B8C000A480B4B42189A42F6D30A4A02E0002329
:103B9C0042F8043B084B9A42F9D3FFF7C5FF00F0FB
:103BAC000FF8FCF78FFE7047DC3C0008000000208B
:103BBC002001002020010020100D0020FEE7000055
:103BCC000E4B70B51E460E4C0025E41AA410A542EF
:103BDC0004D056F8253098470135F8E700F016F870
:103BEC00084B094C1E46E41AA4100025A54204D02B
:103BFC0056F8253098470135F8E770BDD43C0008DD
:103C0C00D43C0008D43C0008D83C0008F8B500BFF0
:103C1C00F8BC08BC9E467047F8B500BFF8BC08BCA1
:043C2C009E467047F9
:103C300002030405060708090A0B0C0D0E0F1010ED
:103C400001024F70656E53696D48617264776172ED
:103C500065004F534820504220436F6E74726F6C62
:103C60006C657220003030303030303030303031E0
:103C700041004F534820504220436F6E74726F6C66
:103C80006C657220436F6E666967004F5348205021
:103C90004220436F6E74726F6C6C657220496E7453
:103CA0006572666163650000050200200101010084
:103CB00002020300010303000406040005050410CA
:103CC00006060600000000010203040102030406C8
:043CD00007080900D8
:043CD40031010008B2
:043CD8000D010008D2
:103CDC004D01000859010008650100088101000828
:103CEC009D010008B9010008D5010008040309046E
:103CFC001201000200000040830459570002010227
:103D0C000301000044000020F10100080502000836
:103D1C00090200080600FF0901A10185010901152E
:103D2C000026FF00750895109182C005010905A1B8
:103D3C000185020509150025013500450175019520
:103D4C004019012940810205010930093109320964
:103D5C003309340935150026FF0F751095068102BD
:103D6C00C00102040810204080000000092111014C
:103D7C000001224D0000000009022900010100C0D1
:103D8C0032090400000203000000092111010001A6
:103D9C00224D0007058103200001070501032000C7
:103DAC00010000005F1600082D16000869150008B8
:103DBC0000000000191500080D1500084515000835
:103DCC0000000000000000000000000001150008C9
:103DDC000115000801150008391500080000000045
:103DEC000A060002000000400100000000A24A0484
:0400000508003B8133
:00000001FF
