:020000040800F2
:1000000000280020652D00081505000817050008C8
:10001000190500081B0500081D0500080000000068
:10002000000000000000000000000000AD2D0008EE
:100030001F05000800000000AD2D00082105000884
:10004000AD2D0008AD2D0008AD2D0008AD2D000828
:10005000AD2D0008AD2D0008AD2D0008AD2D000818
:10006000AD2D0008AD2D0008AD2D00084905000894
:10007000AD2D0008AD2D0008AD2D0008AD2D0008F8
:10008000AD2D0008AD2D0008AD2D0008AD2D0008E8
:1000900055050008AD2D0008AD2D0008AD2D000858
:1000A000AD2D0008AD2D0008AD2D0008AD2D0008C8
:1000B000AD2D0008AD2D000800000000AD2D00089A
:1000C000AD2D00080000000000000000AD2D00086C
:1000D00000000000AD2D0008AD2D0008000000005C
:1000E000AD2D0008AD2D0008AD2D0008000000006A
:1000F0000000000000000000000000000000000000
:0C01000000000000000000005FF808F1A3
:10010C0010B5054C237833B9044B13B10448AFF345
:10011C0000800123237010BD50040020000000005B
:10012C000C2E000808B5034B1BB103490348AFF371
:10013C00008008BD00000000540400200C2E0008B4
:10014C0012230B80004870472000002004230B80F2
:10015C00004870471C00002010B5044C0A460448A7
:10016C00214601F07AFA204610BD00BFF4040020AD
:10017C002C2E000810B5044C0A460448214601F008
:10018C006CFA204610BD00BFF40400203C2E000881
:10019C0010B5044C0A460448214601F05EFA20468C
:1001AC0010BD00BFF40400204F2E000810B5044C05
:1001BC000A460448214601F050FA204610BD00BF03
:1001CC00F40400205C2E000810B5044C0A460448C8
:1001DC00214601F042FA204610BD00BFF404002075
:1001EC00752E0008024A034B00201A60704700BFAE
:1001FC00180B0020F40600200020704730B53E4B51
:10020C0091B01D684022D5F818420021684602F0D2
:10021C00EFFD2378032B31D16378012B68D10423B4
:10022C0036488DF800300DF101020023195C1433AF
:10023C00B3F5207F02F8011BF8D16B46304A0DF163
:10024C001E0112F8010C053318771078103258770C
:10025C0012F80F0C987712F80E0CD87712F80D0CC8
:10026C0083F820009942ECD1264B40221B7869463A
:10027C0028468DF83F3001F0FDFB39E0022B37D1D9
:10028C00234621461D48002211F8015F15541432F3
:10029C00B2F5207FF8D11A4A04F11E0193F821001F
:1002AC00053302F8010C587F103202F8100C987FBD
:1002BC0002F80F0CD87F02F80E0C93F820008B423A
:1002CC0002F80D0CEAD194F83F200E4B1A7000F096
:1002DC004DFF00F071FFBFF34F8F0B490B4BCA68FA
:1002EC0002F4E0621343CB60BFF34F8F00BFFDE716
:1002FC00002011B030BD00BFF40600202C010020FE
:10030C00CD000020CA04002000ED00E00400FA0536
:10031C0007B50D4B02689A4212D103F5DA33DA694C
:10032C00142042F40002DA61DB69002203F40003BA
:10033C0001931146019B02F09BFC142002F0CCFCB3
:10034C0003B05DF804FB00BF005C004000F57B715E
:10035C00D0F81C0401F0D0B900EB4113D3F81C22E7
:10036C00D0F81C0401F0F5B900EB4113DA6BD0F8AE
:10037C001C0401F01FBAD0F81C0401F09ABA10B595
:10038C0004460121D0F81C0401F081FAD4F81C04B5
:10039C00BDE8104001F05CBA10B50446D0F81C045E
:1003AC0001F078FAA36923B1024A136943F00603FA
:1003BC00136110BD00ED00E0D0F81C0401F073BA1D
:1003CC0038B505461749184808220223032480E84B
:1003DC001E00C0F81C540024C5F820028461C461BE
:1003EC00046201F049FF224621461823D5F8200269
:1003FC0001F02AFF224658238021D5F8200201F073
:10040C0023FF224698238121D5F8200201F01CFFFE
:10041C00D82322460121D5F8200201F015FF2046F1
:10042C0038BD00BF005C0040F806002008B5D0F8CD
:10043C00200201F08BFF002008BD10B51C46D0F83F
:10044C0020021346224601F0ACFF002010BD08B577
:10045C00D0F8200201F0C8FF002008BD08B5D0F884
:10046C00200202F08EFA002008BD08B5D0F8200258
:10047C0002F0B0FA002008BD0A06D0F8203245BFC1
:10048C0001F07F0103EB411303EB411393F82A00B6
:10049C0058BF93F80A02704708B5D0F8200201F053
:1004AC006CFF002008BD08B5D0F8200201F0E1FF78
:1004BC00002008BD08B5D0F8200201F0B6FF0020DE
:1004CC0008BD0000004870476C040020704770475E
:1004DC0010B5094C00220949204601F0DAF8084908
:1004EC00204601F0EBF82046064901F0D7FA2046E9
:1004FC00BDE8104001F0E9B8180B00200000002006
:10050C0008040020340000207047FEE7FEE7FEE7F9
:10051C00FEE7FEE708B50849D1E90023013243F1B3
:10052C000003C1E9002300F083FD02F0E7FBBDE806
:10053C00084002F0DEBB00BF60100020014802F052
:10054C006DBA00BF70100020014801F0B2BF00BFAF
:10055C00F8060020114B10B5182202FB0030104B8E
:10056C00027C1B6802F00F010E4A1B6812880E4CAD
:10057C001A420E4A2488126818BF0223126808BF58
:10058C000023144218BF43F00103094A02EB810215
:10059C00D35C0374007C00F0300010BD400D0020D3
:1005AC006C1000205E1000205C10002068100020F1
:1005BC00912E00082DE9F843144C154FDFF8549098
:1005CC0004F52078002501262378072B18D1237CED
:1005DC00A26806FA03F313602846FFF7BBFF38B195
:1005EC0018236B43F918F854D9E90023C1E9022305
:1005FC00237CA268103306FA03F301351360EDB2C5
:10060C0014344445E0D1BDE8F88300BF2C01002030
:10061C00400D00206010002000207047464BF0B5C4
:10062C009A69002142F400729A615A6942F00102FF
:10063C005A61424AA3F6F87351609160D16011611E
:10064C0051631163D1629960D960196059603C495A
:10065C0099603C49D9603C4909785960196841F462
:10066C0040511960196841F440611960196841F4EE
:10067C0040711960196841F020011960196841F046
:10068C0080011960196841F001011960936843F009
:10069C0004039360936829495B07FBD58B682B484F
:1006AC0043F480738B608B68002243F002038B60F1
:1006BC004B68864643F480734B60254B1425CB6006
:1006CC0003F190530B618B6843F001038B6013466D
:1006DC0005FB02F4065D012E08D0065D022E05D046
:1006EC00065D032E02D0045D042C16D1052B05FBF0
:1006FC0002E407D8247C03EB83074E6BBC403443E5
:10070C004C6308E0277C9C1F0E6B04EB840407FAF7
:10071C0004F434430C630133DBB20132202AD7D109
:10072C00064A013BD16ADBB241EA0353D3629368B8
:10073C0043F001039360F0BD00100240002401401F
:10074C004C24014040100020C60400202C01002045
:10075C00922449002DE9F04F414900234FF04432D7
:10076C000A604A60CB60C1F80024C1F80424C1F8C7
:10077C000C34C1F80028C1F804283A4AC1F80C38E6
:10078C00127899B00492384A19461278374E03926F
:10079C00374A0793127809930292364A042012784A
:1007AC0014270692344A12780192344A92F800A027
:1007BC00334A92F800B0334A12680D92324A1288CA
:1007CC000B92324A12680A92314A128808920593A7
:1007DC000C930E930F9310931193129313931493F2
:1007EC0007FB03F2B25C0C2A5CD8DFE802F0070AC4
:1007FC000A0A0A59592113281A2F530010210420D0
:10080C0050E0049A10210132D2B2049201221492C7
:10081C00002047E0039D0135EAB2039201221392B6
:10082C003EE0029A0132D2B202920122129237E0D9
:10083C00069A0132D2B20692012211920CE0019A70
:10084C000132D2B201920122109205E00AF10102AA
:10085C005FFA82FA01220F921021022022E000BFDF
:10086C0000080140C6040020CB0400202C0100200D
:10087C00EC040020C8040020ED040020C904002072
:10088C00C40400206C1000205E10002068100020B2
:10089C005C1000200BF101025FFA82FB01220E9228
:1008AC001021082007FB03F4594A594D22442C5DB2
:1008BC00052C09D1D468127C0D94012404FA02F29F
:1008CC0092B20B9205940C9407FB03F43219345D2D
:1008DC00062C09D1D468127C0A94012404FA02F281
:1008EC0092B208920794099407FB0362147C127C61
:1008FC00072C88BF083A5FFA82F9019C029D039A83
:10090C000AFB0BFE02FB045C5FFA8EFE5FFA8CFCAA
:10091C000CEB0E08C8F3C70418F0070F07FB0368AD
:10092C00D8F804504FEA89021595D8F804504FF0C6
:10093C000F09169509FA02F51795169D00FA02F2A1
:10094C00D5F80090179D08BF013429EA0509159DBB
:10095C0049EA02022A60D8F8082098F810804FF073
:10096C00010588442B4418BF023405FA08F8202BE3
:10097C00E4B2C2F800807FF433AF149B1BB1254B5B
:10098C009DF810201A70139B1BB1234B9DF80C2063
:10099C001A70129B1BB1214B9DF808201A70119BE9
:1009AC001BB11F4B9DF818201A70109B1BB11D4BCF
:1009BC009DF804201A700F9B13B11B4B83F800A0F9
:1009CC000E9B13B1194B83F800B00C9B13B1184B51
:1009DC000D9A1A60059B1BB1164BBDF82C201A8082
:1009EC00099B13B1144B0A9A1A60079B1BB1134B4A
:1009FC00BDF820201A80124B83F800C0114B83F8ED
:100A0C0000E0114B1C7019B0BDE8F04FFFF706BEAB
:100A1C002C010020C6040020CB040020EC04002094
:100A2C00C8040020ED040020C9040020C4040020E8
:100A3C006C1000205E100020681000205C1000205C
:100A4C00C5040020C7040020CC04002008B50F4BBF
:100A5C000F489A6942F03C029A619A6942F001028D
:100A6C009A614FF08062A3F588335A6000F036FB30
:100A7C004FF6FF7302889A4202D100F09DFB01E011
:100A8C0000F034FBBDE80840FFF764BE00100240E4
:100A9C00E0F7FF1F08B51A4B1A4AD96821F4E06138
:100AAC000904090C0A43DA60D868C0F30220FFF786
:100ABC00B3FD0001C0B21876D868C0F30220FFF76E
:100ACC00ABFD0001C0B25876D868C0F30220FFF726
:100ADC00A3FD0001C0B29876D868C0F30220FFF7DE
:100AEC009BFD0001C0B283F82000D868C0F302203F
:100AFC00FFF792FD0001C0B283F8230008BD00BFD0
:100B0C0000ED00E00003FA05254A136843F4803336
:100B1C0013601168224B8903FBD52249086840F009
:100B2C0010000860086820F007000860086840F0B2
:100B3C0004000860596841F0020159605968596015
:100B4C00596841F48061596059685960596841F499
:100B5C0040415960596841F480315960596841F4F9
:100B6C00E0115960196841F08071196013680C49E3
:100B7C009B01FBD5CB690C4A43F40003CB610B4BB7
:100B8C00F0215A600A4A82F8231000229A60072248
:100B9C001A601A6842F004021A60FFF77BBF00BFAC
:100BAC0000100240002002403F19010010E000E05C
:100BBC0000ED00E070B5174B174C53F8203054F88B
:100BCC0020209B1A5943642391FBF3F11144134ADF
:100BDC000301D518AE68B14238BFA968D518EE68C4
:100BEC001344B14288BFE9689D68DA684B1B521BFD
:100BFC00C3EB0333B3FBF2F344F82010084A400074
:100C0C0000F10901DCB20A30C3F307235454135426
:100C1C0070BD00BF40100020D0040020CC0000208C
:100C2C00AC030020F8B500242046114E142707FB16
:100C3C0004F3F35C013B032B15D8DFE803F0020649
:100C4C000A0E451CEDB264210AE0451CEDB23C21B4
:100C5C0006E0451CEDB21E2102E0451CEDB201215F
:100C6C00FFF7A8FF28460134202CE0D1F8BD00BFC7
:100C7C002C0100202DE9F04F864A85B01068516890
:100C8C00854C02AB03C308236375A375E375237608
:100C9C00FFF73AFFFFF7DAFEFFF71AFCDFF818B29E
:100CAC000025FFF7BFFFFFF785FC7C4B7C491878CC
:100CBC00082615234FF0050A4FF0030E4FF0020CD7
:100CCC004FF001084FF00009A3F1150240FA02F2AF
:100CDC00D20731D50A7811F8105C920042EAC502AD
:100CEC0091F820502A430D7C42EA450252B2D5B20B
:100CFC00013A0B2A20D8DFE802F01812150C1F0F4E
:100D0C001F061B1F1F0904F8039016E004F803804C
:100D1C0013E004F803C010E004F803E00DE04FF01A
:100D2C00040207E004F803A007E04FF0060201E01C
:100D3C004FF00702E25400E0E6540133192B01F1A5
:100D4C004001C1D1574BDFF878E11E78564B002794
:100D5C001B781E44FBB2B34223DA1A011EF802C000
:100D6C0003F00701DA08BCF1000F0ED09B0840FA23
:100D7C0003F3DB0709D4531C04AA114414F803C071
:100D8C0011F8082C4CEA020208E00DF1100C531C6F
:100D9C006144E25C11F8081C22EA0102E2540137BA
:100DAC00D8E700229146414B4FF0180893F800A069
:100DBC003F4B93F800E0D3B253455AD208FB02FCE8
:100DCC003C49D1E900670BEB0C01D1E90201361A61
:100DDC0067EB01071BF80C10CDE9006720291ED129
:100DEC00002F4FEA930108BF332E71440DD303F04B
:100DFC00030004AF07EB4000665C10F8080C26EA11
:100E0C00000060540BF80C9009E004A803F00306F2
:100E1C0000EB4606675C16F8080C3843605408FB78
:100E2C0002F12548405C102821D1DDE90067002F34
:100E3C0008BF332E4FEA930003F003030DD304AF26
:100E4C00704407EB4303265C13F8073C26EA0303C4
:100E5C002354194B03F8019009E004AE00EB0E018A
:100E6C0006EB4303605C13F8073C03436354013205
:100E7C00A1E70122A35C0132212A45EA0305F9D13D
:100E8C00002D3FF40EAF0D4B0349186800F0F2FD36
:100E9C0007E700BF242E0008AC030020CA04002082
:100EAC00B8100020C5040020C7040020C80400208E
:100EBC00CC04002060100020400D0020F40600201F
:100ECC00A81000200129F0B522D1154A00011318F1
:100EDC00597829B91349D1E90045C3E9024513E012
:100EEC00012911D19C787CB90E4CD4E90067D3E967
:100EFC000245341B67EB0505002D08BF332C03D3CB
:100F0C00C3E9026711549970104401234370F0BD7A
:100F1C0029B9034A00011318997011545970F0BD86
:100F2C00A8100020601000202DE9F84F002407467F
:100F3C002546214EDFF88CB0DFF88CA0A25DA319FA
:100F4C000C2A33D1DA68197C126801238B401342C6
:100F5C009BF800009AF80030DFF870C01844174B6B
:100F6C0018BF01211B7808BF002103FB0700284490
:100F7C00C0B24FEA001E1CF80E200CEB0E03012A27
:100F8C0010D10F4AD2E90089D3E90223B8EB02024F
:100F9C0069EB0303002B08BF652A03D300230CF86D
:100FAC000E3001E0FFF78EFF0135EDB21434B4F5CD
:100FBC00207FC3D1BDE8F88F2C010020C404002091
:100FCC0060100020EC040020C5040020A8100020B4
:100FDC002DE9F843002407462546124EDFF84880D9
:100FEC00DFF84890A25DA319082A14D1DA68197C9D
:100FFC00126801238B4098F80000134299F80030D6
:10100C00384403FB050014BF01210021C0B2FFF7D7
:10101C0059FF0135EDB21434B4F5207FE2D1BDE8AF
:10102C00F88300BF2C010020EC040020ED0400200C
:10103C002DE9F0474FF00008C146254B254A1B7897
:10104C001578254C5D4304F52077EDB2012614F894
:10105C000C1C01F0FD03092B22D1237954F8042C2C
:10106C0006FA03F30929136007D109F1010A48466E
:10107C005FFA8AFAFFF7ACFFD14614F80C3C0B2B45
:10108C0007D108F1010A40465FFA8AFAFFF74CFFD4
:10109C00D046237954F8042C103306FA03F313606A
:1010AC0014F80C3C0A2B0DD12268237912680135F7
:1010BC0006FA03F31342EDB214BF012100212846B6
:1010CC00FFF700FF1434A742C1D1BDE8F08700BF81
:1010DC00CB040020ED0400203801002000888002A1
:1010EC0000F10060A0F5806070470000F8B51B4867
:1010FC00FFF7F4FF1A49821E002332F8024F5C54AA
:10110C001433B3F5207FF8D1164B00F14A0200F1ED
:10111C00860712F80A4C0A3203F8014C12F8126CCA
:10112C00103303F8106C12F8101C44EA062403F870
:10113C000F1C12F80E5C03F80E5C32F80CEC41EA52
:10114C000521BA4203F80DEC43F8094C43F8051C91
:10115C00DFD1B0F87C20044B1A70F8BDE0F7FF1F0C
:10116C002C010020CD000020CA04002008B50F4A35
:10117C000F4B10485A6002F188325A601A6942F0DB
:10118C0002021A61FFF7AAFF58611A6942F0400285
:10119C001A61D968064AC907FBD4136923F0020304
:1011AC001361136943F08003136108BD2301674584
:1011BC0000200240E0F7FF1FF8B52B4A2B4B2C48C0
:1011CC005A6002F188325A60FFF788FF1A69294C7D
:1011DC0042F001021A61811E0022155D21F8025FA6
:1011EC00DD68ED07FCD41432B2F5207FF5D11F4C2D
:1011FC00214A254600F14A0300F1860612F8041C28
:10120C0023F80A1CE168CF07FCD412F8031C23F85E
:10121C00081CE968C907FCD412F8021C23F8061C48
:10122C00E168CF07FCD412F8011C23F8041CE96810
:10123C00C907FCD4117823F8021CE7680B49FF0797
:10124C00FBD40A33B34202F11002D7D10B4B1B78FB
:10125C00A0F87C300B6923F001030B610B6943F0A0
:10126C0080030B61F8BD00BF2301674500200240DD
:10127C00E0F7FF1F2C010020D0000020CA04002042
:10128C00134610B50222C0F8F42183610A46C361EB
:10129C000021FFF708F9002010BD08B513460A46D7
:1012AC000021FFF700F9002008BD134610B50322FA
:1012BC00C0F8F421C0F808310A46C0F80C310021FE
:1012CC00FFF7F8F8002010BD08B513460A460021B8
:1012DC00FFF7F0F8002008BD08B50423C0F8F4317E
:1012EC0000231A461946FFF7DEF8002008BD08B5A2
:1012FC000523C0F8F43100231A461946FFF7DAF833
:10130C00002008BD0B7803704B784370CA788B783B
:10131C0003EB022343804A790B7903EB022383808E
:10132C00CA798B7903EB0223C380704710B504464E
:10133C008021FFF793F82046BDE810400021FFF70D
:10134C008DB8000073B54B7804460D46092B00F29E
:10135C00FF80DFE813F0D100E800FD00E400FD00A1
:10136C007B000A00FD00C100970049880B0A013B75
:10137C00062B00F2ED80DFE813F007000B001700DE
:10138C00EB00EB0042004D00D0F810321B6816E069
:10139C00027CD0F814320AB99B6A00E0DB6A0DF1CA
:1013AC0006009847022340E0C9B2052920D8DFE89F
:1013BC0001F0030B0F13171BD0F810325B680DF103
:1013CC000601207C984731E0D0F810329B68F6E794
:1013DC00D0F81032DB68F2E7D0F810321B69EEE778
:1013EC00D0F810325B69EAE7D0F810329B69E6E777
:1013FC00D0F814320DF106029B6B984716E0037C73
:10140C00002B40F0A580D0F814320DF106005B6B78
:10141C0098470BE0037C002B40F09A80D0F81432F4
:10142C000DF106001B6B984707234370BDF806208F
:10143C00002A00F09180EB88002B00F08D809A42FE
:10144C0028BF1A460146ADF8062064E08B88002BB5
:10145C007ED1CB88002B7BD190F8FC318E78032B7E
:10146C0006F07F0674D080F8FE613146FFF714F861
:10147C002046FFF731FF0EB1022300E0012384F870
:10148C00FC3169E08978364E0129317060D890F8CA
:10149C00FC31022B02D0032B08D059E0002953D089
:1014AC0001210323416080F8FC310FE031B90223A4
:1014BC0080F8FC31416000F018F945E041680129E1
:1014CC0042D0C9B200F011F931786160204600F0C9
:1014DC0001F9022838D13BE0CA88012A38D190F8AA
:1014EC00FC31022B03D0032B32D1011D13E001463A
:1014FC00002341F8083F0EE090F8FC31023B012B31
:10150C0026D80123C360D0F804320BB10323C36087
:10151C00022204F10C012046FFF7B2FE1CE04B88BE
:10152C00012B19D108E090F8FC31023B012B0FD8AC
:10153C004B88012B10D10023C4F80432D4F8143298
:10154C0029469B68204698472046FFF7C5FE03E0D6
:10155C0029462046FFF7EAFE002002B070BD00BF0E
:10156C00EE04002038B590F8FC310446032B0D46F0
:10157C000CD10B79012B09D8D0F814329B68984701
:10158C00EB882BB92046FFF7A7FE01E0FFF7CEFE54
:10159C00002038BD70B50A788E8802F06002202ACF
:1015AC0004460D46F3B204D1D0F814329B68984728
:1015BC0051E04A78012A10D026D3032A4BD190F857
:1015CC00FC21022A27D0032A43D14A8892B95E060D
:1015DC0010D01946FEF742FF0CE090F8FC21022ACD
:1015EC0019D0032A35D14A88AABB590608D0194606
:1015FC00FEF73BFFD4F8143229469B6820469847E7
:10160C002046FFF769FE26E090F8FC21022A02D062
:10161C00032A06D01DE05A061DD01946FEF71EFF00
:10162C0019E003F07F0516F0800F00EB0515194645
:10163C0014BF143505F58275FEF71EFF10B101239A
:10164C002B6000E02860022229462046FFF718FE96
:10165C0001E0FFF76BFE002070BD30B5C0B1054650
:10166C002B1A15F8014BDBB2002CF9D15B000233BD
:10167C0013800B7003234B700138022310F8015FA9
:10168C0035B15A1CCD54D2B20233DBB28C54F5E7CF
:10169C0030BD08B580B1D0F8143213B10023C0F8B6
:1016AC00143209B1C0F81012012380F8FC31027019
:1016BC00FEF786FE002008BD022008BD19B1C0F857
:1016CC001412002070470220704708B5FEF7AEFEDA
:1016DC00002008BD08B5D0F814320BB9022008BDA3
:1016EC001B6898470028F9D108BD08B5D0F814320A
:1016FC005B689847002008BD38B5044600F50275B4
:10170C002846FFF7FFFD0123C4F8F43194F80812C2
:10171C00B4F80E32C4F8F83101F01F03012B0CD0D1
:10172C0006D3022B0ED129462046FFF733FF0EE0DD
:10173C0029462046FFF706FE09E029462046FFF71A
:10174C0011FF04E001F080012046FEF787FE002027
:10175C0038BD38B50446154609BBD0F8F431032B17
:10176C0026D1D0F80C11D0F8102191420AD98B1A3D
:10177C009A4228BF1A46C0F80C3192B22946FFF79C
:10178C00A3FD15E0D0F814321B6923B190F8FC21AD
:10179C00032A00D198472046FFF79EFD08E0D0F8B9
:1017AC0014329B6923B190F8FC21032A00D198478D
:1017BC00002038BD70B5134604460E4600293CD1B6
:1017CC00D0F8F421022A30D1C569026A954207D9B2
:1017DC00AA1AC261194692B2FFF75FFD334611E0B7
:1017EC008369B3FBF2F502FB15358DB99A420FD81C
:1017FC00D0F8F82193420BD22A46FFF74EFD2B4628
:10180C00C4F8F8511A4619462046FEF753FE0CE070
:10181C00D4F81432DB682BB194F8FC21032A01D1E3
:10182C00204698472046FFF762FD94F80032012BC2
:10183C000CD1002384F8003208E0D0F814325B6934
:10184C0023B190F8FC21032A00D19847002070BDE9
:10185C0038B504460022114640254023FEF7EDFD25
:10186C002B46C4F81051002280212046FEF7E5FDDE
:10187C00012384F8FC31D4F8183225622BB1D4F84A
:10188C00143221795B6820469847002038BD0174DA
:10189C000020704790F8FC3180F8FD31042380F86B
:1018AC00FC310020704790F8FD3180F8FC310020AD
:1018BC00704708B590F8FC21032A04D1D0F81432F3
:1018CC00DB6903B19847002008BD00002923038081
:1018DC0000487047DC030020D0F81832002083F851
:1018EC005000704710B5D0F81842E36C012B07D1AB
:1018FC00D0F81C326178DB68207898470023E364C9
:10190C00002010BD0A2303800048704744040020C7
:10191C0038B50446D0F81852D0F81C326978DB6818
:10192C002878984740232A4601212046FEF7C2FD1D
:10193C00002038BD38B50C78054614F06004D0F89A
:10194C0018322BD0202C51D14A78023A092A20D8AF
:10195C00DFE802F010081F1F1F1F1F170C058A78E5
:10196C001A6443E0012203F1400106E04A88120A9E
:10197C005A643BE0012203F144012846FFF780FC46
:10198C0034E00122DA6428468A791946FFF78DFC87
:10199C002CE02846FFF7CAFC022428E04A780A2AE1
:1019AC001BD00B2A1FD0062A21D14B881B0A222BB5
:1019BC0007D1CA88D0F81C32862A28BF862219681B
:1019CC0009E0212B05D1CA880A49092A28BF092216
:1019DC0001E021462246284602E0012203F148019B
:1019EC00FFF74EFC03E08A789A6400E0002420465E
:1019FC0038BD00BFD003002010B504468121FEF78E
:101A0C0026FD01212046FEF722FDD4F8183253B1F1
:101A1C00D4F81C329B689847D4F81802FEF756FD90
:101A2C000023C4F81832002010BD70B505464023C1
:101A3C0003228121FEF701FD4023032201212846C8
:101A4C00FEF7FBFC5420FEF73DFD0646C5F81802D8
:101A5C0070B1D5F81C32002480F850405B68984770
:101A6C004023324601212846FEF724FD204670BD56
:101A7C00012070BD10B5134690F8FC21032A0BD140
:101A8C00D0F8184294F8502032B9012284F8502032
:101A9C000A468121FEF707FD002010BD19B1C0F8E0
:101AAC001C12002070470220704784B001A880E807
:101ABC000E0004B000207047B0F840309BB243F4E5
:101ACC003D43A0F8403000207047B0F8403023F47C
:101ADC0074535B045B0CA0F840300020704700206E
:101AEC00704784B010B503AC84E80E00BDE810401C
:101AFC000123A0F840300023A0F8403004B0A0F837
:101B0C004430A0F8503018467047CB7830B50A787E
:101B1C00032B2BD8DFE803F0021F0C1530F8223012
:101B2C009BB223F4EC4323F0700343F400731BE0EB
:101B3C0030F8223023F4EC4323F070031B041B0C0D
:101B4C0012E030F822309BB223F4EC4323F0700304
:101B5C0043F4C06308E030F822309BB223F4EC432A
:101B6C0023F0700343F4806320F822300C7830F8B3
:101B7C00243044F4004223F0F0031B051B0D42F00B
:101B8C008002134320F824308B7A0D78002B74D10B
:101B9C004A788B883AB3B0F850205B0892B202EBCB
:101BAC00C5045B0000EB4404C4F800340A7830F838
:101BBC0022305B060BD530F8223023F0F0031B05E6
:101BCC001B0D43F4004343F0C00320F822300A7885
:101BDC0030F8223023F4E04323F040031B041B0CA9
:101BEC0083F02003FBE0B0F850405B08A4B204EB98
:101BFC00C50404345B0000F5806242F81430B0F880
:101C0C0050400B780D69A4B204EBC3043E2D04F1D3
:101C1C0006040BD9C5F34F13ED0604BF03F1FF33D4
:101C2C009BB26FEAC3636FEA534306E0C5F34F03FD
:101C3C00ED0744BF01339BB29B029BB242F81430B8
:101C4C000A7830F822305C040BD530F8223023F0BF
:101C5C00F0031B051B0D43F4404343F0800320F8B5
:101C6C0022300A7830F8223023F4804323F07003BA
:101C7C001B041B0C83F44053B1E030F8253000F505
:101C8C00806423F4F8731B051B0D43F4014343F0EC
:101C9C00800320F82530B0F850300A789BB203EB63
:101CAC00C203CA885208520044F81320B0F85030CE
:101CBC000A789BB203EBC2030A8904335208520020
:101CCC0044F813204B780A78002B46D130F8223098
:101CDC005B040BD530F8223023F0F0031B051B0DF1
:101CEC0043F4404343F0800320F822300A7830F864
:101CFC0022305D060BD530F8223023F0F0031B05A3
:101D0C001B0D43F4004343F0C00320F822300A7843
:101D1C0030F8223023F0F0031B051B0D43F4004375
:101D2C0043F0C00320F822300A7830F8223023F434
:101D3C00804323F070031B041B0C83F4405343F4C7
:101D4C00004343F0800320F822300A7830F8223028
:101D5C0023F0C0031B051B0D41E030F822305C045E
:101D6C000BD530F8223023F0F0031B051B0D43F488
:101D7C00404343F0800320F822300A7830F82230B8
:101D8C005B060BD530F8223023F0F0031B051B0D3E
:101D9C0043F4004343F0C00320F822300A7830F8B3
:101DAC00223023F0F0031B051B0D43F4404343F09A
:101DBC00800320F822300A7830F8223023F0C00358
:101DCC001B051B0D43F4004343F0800320F8223025
:101DDC000A7830F8223023F0F0039B049B0C43F478
:101DEC00004343F0800320F82230002030BD10B5B2
:101DFC008C7A4A780B781CBB82B130F823205206BF
:101E0C005BD530F8232022F0F0021205120D42F4BB
:101E1C00004242F0C00220F823204EE030F823208C
:101E2C00540440F18D8030F8232022F0F00212058A
:101E3C00120D42F4404242F0800220F823207FE051
:101E4C00002A42D130F8232052040BD530F823203D
:101E5C0022F0F0021205120D42F4404242F08002D0
:101E6C0020F823200A7830F822305C060BD530F8A5
:101E7C00223023F0F0031B051B0D43F4004343F009
:101E8C00C00320F822300A7830F8223023F0F00317
:101E9C001B051B0D43F4004343F0C00320F8223014
:101EAC000A7830F8223023F0F0039B049B0C43F4A7
:101EBC00004343F0800320F822300A7830F82230B7
:101ECC0023F0C0031B051B0D41E030F82320520406
:101EDC000BD530F8232022F0F0021205120D42F43B
:101EEC00404242F0800220F823200A7830F8223059
:101EFC005B060BD530F8223023F0F0031B051B0DCD
:101F0C0043F4004343F0C00320F822300A7830F841
:101F1C00223023F0F0031B051B0D43F4404343F028
:101F2C00800320F822300A7830F8223023F0C003E6
:101F3C001B051B0D43F4004343F0800320F82230B3
:101F4C000A7830F8223023F0F0039B049B0C43F406
:101F5C00004343F0800320F82230002010BD0A78A3
:101F6C007AB903889BB223F4804323F0400383F4B3
:101F7C00805383F0100343F4004343F08003038049
:101F8C001CE04B7853B130F8223023F4E04323F0BB
:101F9C0040031B041B0C83F0100309E030F82230C3
:101FAC0023F4804323F070031B041B0C83F4805335
:101FBC0043F4004343F0800320F8223000207047A4
:101FCC004B780A78DBB130F822305B060BD530F851
:101FDC00223023F0F0031B051B0D43F4004343F0A8
:101FEC00C00320F822300A7830F8223023F4E04382
:101FFC0023F040031B041B0C83F030031AE030F871
:10200C0022305B040BD530F8223023F0F0031B0593
:10201C001B0D43F4404343F0800320F822300A7830
:10202C0030F8223023F4804323F070031B041B0C84
:10203C0083F4405343F4004343F0800320F82230F0
:10204C000020704711B98023A0F84C300020704755
:10205C000020704700207047B0F8440080B27047F1
:10206C0000207047013300F5806010B55B1000EB69
:10207C0042020024A34205D031F8020B22F82400BE
:10208C000134F7E710BDF8B5044648780E46012830
:10209C008B690A698F7A57D11D46934283BF9D1A6B
:1020AC008D611546002398BF8B61ABB27FB98A88CE
:1020BC0020464969FFF7D6FFB4F8503032789BB20E
:1020CC0003EBC20304EB4303C3F8045430E00A7877
:1020DC00204634F82210D20011F0400FB4F8501002
:1020EC0089B20A4404EB4202C2F80454716914BF69
:1020FC003289F288FFF7B6FF7378327853B934F827
:10210C00223023F0F0031B051B0D43F4004343F076
:10211C00C0030BE0012B0BD134F8223023F0F00379
:10212C001B051B0D43F4404343F0800324F822307D
:10213C00327834F8223023F4E04323F040031B04BC
:10214C001B0C83F0300366E093428BBF9B1A00227A
:10215C008B618A6188BF1346097827B300BBB4F83A
:10216C0050203E2B92B202EBC10101F1020104F5A9
:10217C0080600BD9C3F34F12DD0604BF02F1FF32AE
:10218C0092B26FEAC2626FEA524206E0C3F34F02A8
:10219C00DF0744BF013292B2920292B240F8112092
:1021AC00727831780ABBB4F850203E2B92B202EB15
:1021BC00C10101F1060104F580600BD9C3F34F1284
:1021CC00DD0604BF02F1FF3292B26FEAC2626FEA1F
:1021DC00524206E0C3F34F02DB0744BF013292B216
:1021EC00920292B240F811200AE0012A08D1B4F808
:1021FC00502092B202EBC10104EB4101C1F804344E
:10220C00327834F8223023F4804323F070031B041B
:10221C001B0C83F4405343F4004343F0800324F835
:10222C0022300020F8BD013300F5806010B55B1042
:10223C0000EB42020024A34205D052F8240021F8FE
:10224C0014000134F7E710BD11F0800F1BBF01F033
:10225C007F0100EB411000EB4110283008BF00F566
:10226C00027012B98272838004E00122C3801B0CBD
:10227C0082720381002070472DE9F041044686B03C
:10228C0000285FD090F8E93303F0FF021BB980F807
:10229C00E823FEF73DF825466E46032355F8100B50
:1022AC0084F8E933FFF711FC0FCD0FC62B68271DFF
:1022BC00336097E80E002068FFF7F7FB00212068D9
:1022CC00FFF70DFC002123462246084604F11005B9
:1022DC00012682F82810918601310F2982F8296095
:1022EC0082F82B009063D063106402F12002F0D1CD
:1022FC000022114683F808229A8601320F2A83F8AD
:10230C00091283F80B12C3F81812C3F81C12C3F885
:10231C0020124FF0000803F12003EBD16E460FCDD5
:10232C000FC62B68336097E80E002068FFF7D9FBC7
:10233C00012384F82480206884F8E933FFF78AFEAF
:10234C00404600E0012006B0BDE8F08190F8E8338B
:10235C0010B5012B04460ED0012180F8E813FEF7CE
:10236C00B6F82068FFF774FE2068FFF7A5FB002085
:10237C0084F8E80310BD022010BD90F8E82310B5D6
:10238C00012A04460BD0012280F8E82384F824109B
:10239C000068FFF757FE002084F8E80310BD022008
:1023AC0010BD38B5044648B2002801F07F05B5BF12
:1023BC0004EB451104EB4111283101F50271C00FFA
:1023CC000D704870CB7094F8E8330A61012B09D07A
:1023DC00012384F8E8332068FFF797FB002084F88A
:1023EC00E80338BD022038BD4BB2002B01F07F0250
:1023FC00B5BF00EB421100EB4111283101F5027120
:10240C00DB0F10B50A704B7090F8E8330446012BC3
:10241C0009D0012380F8E8330068FFF7E8FC0020BE
:10242C0084F8E80310BD022010BD70B5044601F01D
:10243C007F0670012518C5F820320023C5F81C2230
:10244C00C5F8243285F8093285F8086294F8E83327
:10245C00012B0CD0012300F50270211884F8E8330D
:10246C002068FFF710FE002084F8E80370BD0220FE
:10247C0070BD70B5044601F07F06700125182B6401
:10248C0000236B640123EA6385F8293085F8286002
:10249C0094F8E8239A420AD02830211884F8E833BB
:1024AC002068FFF7F0FD002084F8E80370BD0220DF
:1024BC0070BD2DE9F34104460068FFF7CDFD000423
:1024CC0016D42068FFF7C8FD410540F1DB81226876
:1024DC002046B2F8443023F480631B041B0CA2F892
:1024EC004430FDF74CFF00212046FFF746FFC9E1C1
:1024FC000023ADF8043004F57B77ADF80630206886
:10250C00B0F844309BB2ADF804301B04D9D5BDF8FB
:10251C00045015F00F0540F0B580BDF80410038889
:10252C0001F0100189B259BB23F4E14323F070038D
:10253C001B041B0C0380B0F8503094F828209BB27D
:10254C0003EBC20300EB4300D0F80434E26BC3F39B
:10255C00090363641344E3632046FDF705FF94F815
:10256C002430002BCBD0226C002AC8D194F8243014
:10257C00216843F08003A1F84C3084F82420BEE796
:10258C009BB2ADF80630BDF806301A051ED5B0F872
:10259C00503094F808229BB203EBC20300EB4303C8
:1025AC00D3F80C34B4F80C22C3F30903C4F8243266
:1025BC003946FFF738FE22682046138823F0700353
:1025CC001B051B0D1380FDF7C1FE98E7BDF8063007
:1025DC001B0494D5038823F070031B051B0D03808B
:1025EC00B0F8503094F808229BB203EBC20300EB16
:1025FC004303D3F80C34C3F30903C4F8243263B196
:10260C00B4F80C22D4F81C12FFF70DFED4F81C22DF
:10261C00D4F824321344C4F81C3200212046FDF7B0
:10262C009BFE2268D4F81852B2F850103E2D89B295
:10263C0001F1060102F580600BD9C5F34F13EE06CC
:10264C0004BF03F1FF339BB26FEAC3636FEA5343DA
:10265C0006E0C5F34F03ED0744BF01339BB29B0269
:10266C009BB240F81130138823F4804323F070039D
:10267C001B041B0C83F4405343F4004343F08003CE
:10268C0013803CE730F825309BB2ADF80630BDF82E
:10269C000630190477D530F825304FEA451823F069
:1026AC0070031B051B0D20F8253004EB080191F875
:1026BC001232ABB9B0F8503091F808229BB203EB50
:1026CC00C20300EB4303D3F80C64C6F30906DEB374
:1026DC00B1F80C223346D1F81C12FFF7A4FD33E0FD
:1026EC0091F8083230F82320DB0012F4804FB0F858
:1026FC00502092B2134400EB430308D0D3F8046487
:10270C00C6F309067EB13346B1F80E2207E0D3F8C2
:10271C000C64C6F3090636B13346B1F81022D1F871
:10272C001C12FFF780FD04EB080393F808122268D3
:10273C0032F8213023F0F0031B051B0D43F400434A
:10274C0043F0C00322F8213004EB0801D1F8243205
:10275C00D1F81C223344C1F82432D1F8203232444F
:10276C00C1F81C221BB1D1F81802864206D2A04433
:10277C0098F808122046FDF7EFFD04E091F80812D6
:10278C002046FFF752FEBDF806301A067FF5B7AEAD
:10279C0020686E0130F82530A11923F4E14323F0B1
:1027AC0070031B041B0C20F8253091F832300235D5
:1027BC00B3B9B0F8503091F828209BB203EBC203A8
:1027CC0000EB4303D3F8043404EB4515C3F30903BE
:1027DC006B60002B38D08A8DC96BFFF743FC33E05C
:1027EC0091F8283030F82320DB0012F0400FB0F8BD
:1027FC00502092B2134400EB430309D0D3F80434B5
:10280C0004EB4515C3F309036B606BB1CA8D08E08B
:10281C00D3F80C3404EB4515C3F309036B601BB1FF
:10282C000A8EC96BFFF71EFCA31993F828102268B7
:10283C0032F8213023F0F0031B051B0D43F4404309
:10284C0043F0800322F821302068A119B0F8502001
:10285C0091F8283092B202EBC30300EB4303D3F898
:10286C000424CB6BC2F309024A641A440B6CCA638E
:10287C00204691F8281013B9FDF776FD3FE6FFF7D7
:10288C00F8FD3CE62068FFF7E7FB470408D5226813
:10289C00B2F8443023F480431B041B0CA2F84430E0
:1028AC002068FFF7D9FB860408D52268B2F84430BB
:1028BC0023F400531B041B0CA2F844302068FFF7D0
:1028CC00CBFBC50418D522682046B2F8403023F063
:1028DC0004031B041B0CA2F840304FF43D43A2F838
:1028EC004030FDF769FD2268B2F8443023F4805380
:1028FC001B041B0CA2F844302068FFF7ADFB00054D
:10290C001DD52068B0F8443023F400631B041B0C65
:10291C00A0F84430B0F840309BB243F00803A0F864
:10292C004030B0F840309BB243F00403A0F8403084
:10293C00FFF792FBC10402D42046FDF72DFD206861
:10294C00FFF78AFB82050BD522682046B2F844308B
:10295C0023F400731B041B0CA2F84430FDF70BFD91
:10296C002068FFF779FBC30508D52268B2F844301C
:10297C0023F480731B041B0CA2F8443002B0BDE896
:10298C00F08138B54BB2002B01F07F05B5BF00EBE1
:10299C00451100EB4111283101F502710122DB0FC9
:1029AC00EDB28A700D704B7090F8E8330446934288
:1029BC000ED080F8E8230068FFF7D1FA25B904F5AA
:1029CC007B712068FFF74CFB002084F8E80338BDCE
:1029DC00022038BD38B54BB2002B01F07F02B5BFD9
:1029EC0000EB421100EB4111283101F50271DB0FB4
:1029FC0000248C700A704B7090F8E8330546012B5C
:102A0C0009D0012380F8E8330068FFF7D9FA85F87C
:102A1C00E843204638BD022038BD0000914B70B50C
:102A2C001968914D03680446AB4213D08F4A934208
:102A3C0012D01432934211D01432934211D014326A
:102A4C00934211D0143293420CBF4FF400024FF05A
:102A5C0000620BE0082209E0802207E04FF40062DC
:102A6C0004E04FF4004201E04FF400220A4238D057
:102A7C001A68120735D51A68AB4222F008021A60A0
:102A8C0013D07A4A934212D01432934211D014329A
:102A9C00934211D01432934211D0143293420CBF92
:102AAC004FF400034FF000630BE0082309E0802390
:102ABC0007E04FF4006304E04FF4004301E04FF4EF
:102ACC000023684A5360636B43F001036363042380
:102ADC0084F82130002384F82030236B0BB120467E
:102AEC009847604B19682368AB4213D05F4A9342F6
:102AFC0012D01432934211D01432934211D01432AA
:102B0C00934211D0143293420CBF4FF480024FF019
:102B1C0080620BE0042209E0402207E04FF480625F
:102B2C0004E04FF4804201E04FF480220A4234D09A
:102B3C001A68560731D51A6890065EBF1A6822F0DB
:102B4C0004021A60AB4213D0484A934212D014329A
:102B5C00934211D01432934211D01432934211D0BB
:102B6C00143293420CBF4FF480034FF080630BE0A0
:102B7C00042309E0402307E04FF4806304E04FF4A2
:102B8C00804301E04FF48023364A5360112384F8CC
:102B9C002130E36A0BB120469847324B1968236801
:102BAC00AB4213D0314A934212D01432934211D01B
:102BBC001432934211D01432934211D014329342F6
:102BCC000CBF4FF400124FF000720BE0022209E030
:102BDC00202207E04FF4007204E04FF4005201E0B1
:102BEC004FF400320A423BD01A68910738D51A6864
:102BFC0092065EBF1A6822F002021A60AB4213D032
:102C0C001A4A934212D01432934211D01432934286
:102C1C0011D01432934211D0143293420CBF4FF4A2
:102C2C0000134FF000730BE0022309E0202307E0B0
:102C3C004FF4007304E04FF4005301E04FF4003301
:102C4C00084A5360636B6363012384F821300023CB
:102C5C0084F82030A36A1BB12046BDE870401847A9
:102C6C0070BD00BF00000240080002401C00024082
:102C7C00174B30B5DB68C3F30223C3F107041D1DEA
:102C8C00042C28BF0424062D4FF0010505FA04F48A
:102C9C0004F1FF348CBF033B00230C409C4005FA2D
:102CAC0003F3013B1A40002842EA04024FEA0212E5
:102CBC00AFBF00F16040074B00F00F00D2B2A5BFD0
:102CCC00D2B200F561401A5480F8002330BD00BF29
:102CDC0000ED00E014ED00E04209012300F01F00BC
:102CEC0003FA00F0014B43F82200704700E100E0CA
:102CFC00704708B5FFF7FCFF08BD0000024A1368D7
:102D0C0001331360704700BFF00400200F4B1A68AA
:102D1C0042F001021A6059680D4A0A405A601A685A
:102D2C0022F0847222F480321A601A6822F4802213
:102D3C001A605A6822F4FE025A604FF41F029A601D
:102D4C00044B4FF000629A60704700BF00100240C5
:102D5C000000FFF800ED00E0002103E00B4B5B5896
:102D6C00435004310A480B4B42189A42F6D30A4A94
:102D7C0002E0002342F8043B084B9A42F9D3FFF7D8
:102D8C00C5FF00F00FF8FDF775FF7047B82E00086F
:102D9C00000000205004002050040020A814002043
:102DAC00FEE700000E4B70B51E460E4C0025E41AD3
:102DBC00A410A54204D056F8253098470135F8E701
:102DCC0000F01EF8084B094C1E46E41AA41000250E
:102DDC00A54204D056F8253098470135F8E770BD68
:102DEC00B02E0008B02E0008B02E0008B42E00083B
:102DFC0003460244934202D003F8011BFAE77047E2
:102E0C00F8B500BFF8BC08BC9E467047F8B500BFCB
:082E1C00F8BC08BC9E4670479B
:102E240001020408102040804F70656E53696D489C
:102E340061726477617265004F53482050422043A9
:102E44006F6E74726F6C6C6572200030303030308D
:102E540030303030303141004F534820504220430D
:102E64006F6E74726F6C6C657220436F6E66696707
:102E7400004F534820504220436F6E74726F6C6C45
:102E8400657220496E7465726661636500000502AF
:102E940000200101010002020300010303000406F3
:0C2EA400040005050410060606000000EE
:042EB00031010008E4
:042EB4000D01000804
:102EB8004D0100085901000865010008810100085A
:102EC8009D010008B9010008D501000804030904A0
:102ED8001201000200000040091200310103010242
:102EE8000301000044000020F10100080502000869
:102EF8000902000805010905A10185010509150058
:102F08002501750195401901294081020501093300
:102F180009340935094309440945150026FF0F7589
:102F280010950681020939150025073500463B0131
:102F380065127508950181020939651275089501B0
:102F480081020939651275089501810209396512EE
:102F580075089501810285020901150026FF009573
:102F68003F7508918285030902950175089182854C
:102F7800040903953F75088182C000000000FF0F17
:102F88000000000000000000FF0F00000000FF0F1D
:102F98000000000000000000FF0F00000000FF0F0D
:102FA8000000000000000000FF0F00000000FF0FFD
:102FB8000000000000000000FF0F00000000FF0FED
:102FC8000000000000000000FF0F00000000FF0FDD
:102FD8000000000000000000FF0F000003000000D8
:102FE80000080140100801400808014000000000E6
:102FF80003000000000801401008014008080140D3
:103008000100000003000000000801401008014012
:103018000808014002000000030000000008014009
:1030280010080140080801400300000003000000E8
:103038000008014010080140080801400400000091
:103048000300000000080140100801400808014082
:1030580005000000030000000008014010080140BE
:1030680008080140060000000900000000080140AF
:103078001008014008080140070000000700000090
:103088000408014010080140080801400800000039
:10309800070000000408014010080140080801402A
:1030A8000900000007000000040801401008014062
:1030B800080801400A000000070000000408014059
:1030C80010080140080801400B000000070000003C
:1030D8000408014010080140080801400C000000E5
:1030E80007000000040801401008014008080140DA
:1030F8000F00000007000000000C0140100C014008
:10310800080C01400000000007000000000C01400E
:10311800100C0140080C01400100000009000000EB
:10312800000C0140100C0140080C01400300000095
:1031380008000000000C0140100C0140080C014080
:103148000400000008000000000C0140100C0140C1
:10315800080C01400500000008000000000C0140B8
:10316800100C0140080C0140060000000800000097
:10317800000C0140100C0140080C01400700000041
:1031880008000000040C0140100C0140080C01402C
:103198000800000008000000040C0140100C014069
:1031A800080C01400900000005000000040C014063
:1031B800100C0140080C01400A0000000600000045
:1031C800040C0140100C0140080C01400B000000E9
:1031D80009000000040C0140100C0140080C0140DB
:1031E8000C00000007000000040C0140100C014016
:1031F800080C01400D00000007000000040C01400D
:10320800100C0140080C01400E00000007000000EF
:10321800040C0140100C0140080C01400F00000094
:10322800090000000410014010100140081001407E
:103238000D000000090000000410014010100140BA
:10324800081001400E0000000900000004100140B1
:1032580010100140081001400F000000010000009C
:103268000000000000000000000000000000000056
:103278000000000000000000000000000000000046
:10328800092111010001228600000000090229001D
:10329800010100C0320904000002030000000921F6
:1032A800110100012286000705810340000107057E
:1032B8000103400001000000371A0008051A000841
:1032C8004119000800000000F1180008E51800087E
:1032D8001D190008000000000000000000000000A8
:1032E800D9180008D9180008D918000811190008B9
:1032F800000000000A060002000000400100000073
:0400000508002D655D
:00000001FF
